{"project/contracts/EURCVBridge.sol":{"EURCVBridge":{"abi":[{"inputs":[{"internalType":"address","name":"_token","type":"address"},{"internalType":"address","name":"_attester","type":"address"},{"internalType":"uint32","name":"_localDomain","type":"uint32"},{"internalType":"uint256","name":"_minAmount","type":"uint256"},{"internalType":"uint256","name":"_maxAmount","type":"uint256"},{"internalType":"address","name":"admin","type":"address"}],"stateMutability":"nonpayable","type":"constructor"},{"inputs":[],"name":"AccessControlBadConfirmation","type":"error"},{"inputs":[{"internalType":"address","name":"account","type":"address"},{"internalType":"bytes32","name":"neededRole","type":"bytes32"}],"name":"AccessControlUnauthorizedAccount","type":"error"},{"inputs":[],"name":"ECDSAInvalidSignature","type":"error"},{"inputs":[{"internalType":"uint256","name":"length","type":"uint256"}],"name":"ECDSAInvalidSignatureLength","type":"error"},{"inputs":[{"internalType":"bytes32","name":"s","type":"bytes32"}],"name":"ECDSAInvalidSignatureS","type":"error"},{"inputs":[],"name":"EnforcedPause","type":"error"},{"inputs":[],"name":"ExpectedPause","type":"error"},{"anonymous":false,"inputs":[{"indexed":true,"internalType":"bytes32","name":"transferId","type":"bytes32"},{"indexed":true,"internalType":"address","name":"sender","type":"address"},{"indexed":false,"internalType":"uint256","name":"amount","type":"uint256"},{"indexed":false,"internalType":"uint32","name":"destDomain","type":"uint32"},{"indexed":false,"internalType":"bytes32","name":"recipient","type":"bytes32"},{"indexed":false,"internalType":"uint64","name":"nonce","type":"uint64"}],"name":"BurnForBridge","type":"event"},{"anonymous":false,"inputs":[{"indexed":true,"internalType":"bytes32","name":"transferId","type":"bytes32"},{"indexed":true,"internalType":"address","name":"recipient","type":"address"},{"indexed":false,"internalType":"uint256","name":"amount","type":"uint256"},{"indexed":false,"internalType":"uint32","name":"sourceDomain","type":"uint32"}],"name":"MintFromBridge","type":"event"},{"anonymous":false,"inputs":[{"indexed":false,"internalType":"address","name":"account","type":"address"}],"name":"Paused","type":"event"},{"anonymous":false,"inputs":[{"indexed":true,"internalType":"bytes32","name":"role","type":"bytes32"},{"indexed":true,"internalType":"bytes32","name":"previousAdminRole","type":"bytes32"},{"indexed":true,"internalType":"bytes32","name":"newAdminRole","type":"bytes32"}],"name":"RoleAdminChanged","type":"event"},{"anonymous":false,"inputs":[{"indexed":true,"internalType":"bytes32","name":"role","type":"bytes32"},{"indexed":true,"internalType":"address","name":"account","type":"address"},{"indexed":true,"internalType":"address","name":"sender","type":"address"}],"name":"RoleGranted","type":"event"},{"anonymous":false,"inputs":[{"indexed":true,"internalType":"bytes32","name":"role","type":"bytes32"},{"indexed":true,"internalType":"address","name":"account","type":"address"},{"indexed":true,"internalType":"address","name":"sender","type":"address"}],"name":"RoleRevoked","type":"event"},{"anonymous":false,"inputs":[{"indexed":false,"internalType":"address","name":"account","type":"address"}],"name":"Unpaused","type":"event"},{"inputs":[],"name":"DEFAULT_ADMIN_ROLE","outputs":[{"internalType":"bytes32","name":"","type":"bytes32"}],"stateMutability":"view","type":"function"},{"inputs":[],"name":"attester","outputs":[{"internalType":"address","name":"","type":"address"}],"stateMutability":"view","type":"function"},{"inputs":[{"internalType":"uint256","name":"amount","type":"uint256"},{"internalType":"uint32","name":"destDomain","type":"uint32"},{"internalType":"bytes32","name":"recipient","type":"bytes32"}],"name":"depositForBurn","outputs":[],"stateMutability":"nonpayable","type":"function"},{"inputs":[{"internalType":"address","name":"to","type":"address"},{"internalType":"uint256","name":"amount","type":"uint256"}],"name":"emergencyMint","outputs":[],"stateMutability":"nonpayable","type":"function"},{"inputs":[{"internalType":"bytes32","name":"role","type":"bytes32"}],"name":"getRoleAdmin","outputs":[{"internalType":"bytes32","name":"","type":"bytes32"}],"stateMutability":"view","type":"function"},{"inputs":[{"internalType":"bytes32","name":"role","type":"bytes32"},{"internalType":"address","name":"account","type":"address"}],"name":"grantRole","outputs":[],"stateMutability":"nonpayable","type":"function"},{"inputs":[{"internalType":"bytes32","name":"role","type":"bytes32"},{"internalType":"address","name":"account","type":"address"}],"name":"hasRole","outputs":[{"internalType":"bool","name":"","type":"bool"}],"stateMutability":"view","type":"function"},{"inputs":[],"name":"localDomain","outputs":[{"internalType":"uint32","name":"","type":"uint32"}],"stateMutability":"view","type":"function"},{"inputs":[],"name":"maxAmount","outputs":[{"internalType":"uint256","name":"","type":"uint256"}],"stateMutability":"view","type":"function"},{"inputs":[],"name":"minAmount","outputs":[{"internalType":"uint256","name":"","type":"uint256"}],"stateMutability":"view","type":"function"},{"inputs":[],"name":"nonce","outputs":[{"internalType":"uint64","name":"","type":"uint64"}],"stateMutability":"view","type":"function"},{"inputs":[],"name":"pause","outputs":[],"stateMutability":"nonpayable","type":"function"},{"inputs":[],"name":"paused","outputs":[{"internalType":"bool","name":"","type":"bool"}],"stateMutability":"view","type":"function"},{"inputs":[{"components":[{"internalType":"uint32","name":"version","type":"uint32"},{"internalType":"bytes32","name":"transferId","type":"bytes32"},{"internalType":"uint32","name":"sourceDomain","type":"uint32"},{"internalType":"uint32","name":"destDomain","type":"uint32"},{"internalType":"bytes32","name":"sender","type":"bytes32"},{"internalType":"bytes32","name":"recipient","type":"bytes32"},{"internalType":"uint256","name":"amount","type":"uint256"},{"internalType":"bytes32","name":"burnTxHash","type":"bytes32"}],"internalType":"struct EURCVBridge.BridgeMessage","name":"message","type":"tuple"},{"internalType":"bytes","name":"attestation","type":"bytes"}],"name":"receiveMessage","outputs":[],"stateMutability":"nonpayable","type":"function"},{"inputs":[{"internalType":"bytes32","name":"role","type":"bytes32"},{"internalType":"address","name":"callerConfirmation","type":"address"}],"name":"renounceRole","outputs":[],"stateMutability":"nonpayable","type":"function"},{"inputs":[{"internalType":"bytes32","name":"role","type":"bytes32"},{"internalType":"address","name":"account","type":"address"}],"name":"revokeRole","outputs":[],"stateMutability":"nonpayable","type":"function"},{"inputs":[{"internalType":"address","name":"_attester","type":"address"}],"name":"setAttester","outputs":[],"stateMutability":"nonpayable","type":"function"},{"inputs":[{"internalType":"uint256","name":"_maxAmount","type":"uint256"}],"name":"setMaxAmount","outputs":[],"stateMutability":"nonpayable","type":"function"},{"inputs":[{"internalType":"uint256","name":"_minAmount","type":"uint256"}],"name":"setMinAmount","outputs":[],"stateMutability":"nonpayable","type":"function"},{"inputs":[{"internalType":"bytes4","name":"interfaceId","type":"bytes4"}],"name":"supportsInterface","outputs":[{"internalType":"bool","name":"","type":"bool"}],"stateMutability":"view","type":"function"},{"inputs":[],"name":"token","outputs":[{"internalType":"contract EURCVToken","name":"","type":"address"}],"stateMutability":"view","type":"function"},{"inputs":[],"name":"unpause","outputs":[],"stateMutability":"nonpayable","type":"function"},{"inputs":[{"internalType":"bytes32","name":"","type":"bytes32"}],"name":"usedNonces","outputs":[{"internalType":"bool","name":"","type":"bool"}],"stateMutability":"view","type":"function"}],"evm":{"bytecode":{"linkReferences":{},"object":"60a060405234801561000f575f5ffd5b506040516124143803806124148339818101604052810190610031919061031a565b856001806101000a81548173ffffffffffffffffffffffffffffffffffffffff021916908373ffffffffffffffffffffffffffffffffffffffff1602179055508460025f6101000a81548173ffffffffffffffffffffffffffffffffffffffff021916908373ffffffffffffffffffffffffffffffffffffffff1602179055508363ffffffff1660808163ffffffff168152505082600381905550816004819055506100e55f5f1b826100f160201b60201c565b505050505050506103a3565b5f61010283836101e660201b60201c565b6101dc5760015f5f8581526020019081526020015f205f015f8473ffffffffffffffffffffffffffffffffffffffff1673ffffffffffffffffffffffffffffffffffffffff1681526020019081526020015f205f6101000a81548160ff02191690831515021790555061017961024960201b60201c565b73ffffffffffffffffffffffffffffffffffffffff168273ffffffffffffffffffffffffffffffffffffffff16847f2f8788117e7eff1d82e926ec794901d17c78024a50270940304540a733656f0d60405160405180910390a4600190506101e0565b5f90505b92915050565b5f5f5f8481526020019081526020015f205f015f8373ffffffffffffffffffffffffffffffffffffffff1673ffffffffffffffffffffffffffffffffffffffff1681526020019081526020015f205f9054906101000a900460ff16905092915050565b5f33905090565b5f5ffd5b5f73ffffffffffffffffffffffffffffffffffffffff82169050919050565b5f61027d82610254565b9050919050565b61028d81610273565b8114610297575f5ffd5b50565b5f815190506102a881610284565b92915050565b5f63ffffffff82169050919050565b6102c6816102ae565b81146102d0575f5ffd5b50565b5f815190506102e1816102bd565b92915050565b5f819050919050565b6102f9816102e7565b8114610303575f5ffd5b50565b5f81519050610314816102f0565b92915050565b5f5f5f5f5f5f60c0878903121561033457610333610250565b5b5f61034189828a0161029a565b965050602061035289828a0161029a565b955050604061036389828a016102d3565b945050606061037489828a01610306565b935050608061038589828a01610306565b92505060a061039689828a0161029a565b9150509295509295509295565b6080516120446103d05f395f81816106e40152818161086d015281816109420152610a6801526120445ff3fe608060405234801561000f575f5ffd5b506004361061014b575f3560e01c80638456cb59116100c1578063a217fddf1161007a578063a217fddf1461034d578063affed0e01461036b578063d547741f14610389578063ef537e6c146103a5578063fc0c546a146103c1578063feb61724146103df5761014b565b80638456cb591461029f578063897b0637146102a95780638d3638f4146102c557806391d14854146102e35780639b2cb5d8146103135780639daf85ab146103315761014b565b806343785dc91161011357806343785dc9146101f157806347b0c3b31461020d5780634fe47f701461022b5780635c975abb146102475780635f48f393146102655780637eaac98f146102835761014b565b806301ffc9a71461014f578063248a9ca31461017f5780632f2ff15d146101af57806336568abe146101cb5780633f4ba83a146101e7575b5f5ffd5b61016960048036038101906101649190611577565b61040f565b60405161017691906115bc565b60405180910390f35b61019960048036038101906101949190611608565b610488565b6040516101a69190611642565b60405180910390f35b6101c960048036038101906101c491906116b5565b6104a4565b005b6101e560048036038101906101e091906116b5565b6104c6565b005b6101ef610541565b005b61020b60048036038101906102069190611726565b610558565b005b6102156105f9565b6040516102229190611773565b60405180910390f35b6102456004803603810190610240919061178c565b61061e565b005b61024f610635565b60405161025c91906115bc565b60405180910390f35b61026d61064a565b60405161027a91906117c6565b60405180910390f35b61029d60048036038101906102989190611818565b610650565b005b6102a7610912565b005b6102c360048036038101906102be919061178c565b610929565b005b6102cd610940565b6040516102da9190611877565b60405180910390f35b6102fd60048036038101906102f891906116b5565b610964565b60405161030a91906115bc565b60405180910390f35b61031b6109c7565b60405161032891906117c6565b60405180910390f35b61034b60048036038101906103469190611890565b6109cd565b005b610355610a1d565b6040516103629190611642565b60405180910390f35b610373610a23565b60405161038091906118dd565b60405180910390f35b6103a3600480360381019061039e91906116b5565b610a3c565b005b6103bf60048036038101906103ba919061197a565b610a5e565b005b6103c9610df4565b6040516103d69190611a34565b60405180910390f35b6103f960048036038101906103f49190611608565b610e18565b60405161040691906115bc565b60405180910390f35b5f7f7965db0b000000000000000000000000000000000000000000000000000000007bffffffffffffffffffffffffffffffffffffffffffffffffffffffff1916827bffffffffffffffffffffffffffffffffffffffffffffffffffffffff19161480610481575061048082610e35565b5b9050919050565b5f5f5f8381526020019081526020015f20600101549050919050565b6104ad82610488565b6104b681610e9e565b6104c08383610eb2565b50505050565b6104ce610f9b565b73ffffffffffffffffffffffffffffffffffffffff168173ffffffffffffffffffffffffffffffffffffffff1614610532576040517f6697b23200000000000000000000000000000000000000000000000000000000815260040160405180910390fd5b61053c8282610fa2565b505050565b5f5f1b61054d81610e9e565b61055561108b565b50565b5f5f1b61056481610e9e565b61056c6110ec565b60018054906101000a900473ffffffffffffffffffffffffffffffffffffffff1673ffffffffffffffffffffffffffffffffffffffff166340c10f1984846040518363ffffffff1660e01b81526004016105c7929190611a4d565b5f604051808303815f87803b1580156105de575f5ffd5b505af11580156105f0573d5f5f3e3d5ffd5b50505050505050565b60025f9054906101000a900473ffffffffffffffffffffffffffffffffffffffff1681565b5f5f1b61062a81610e9e565b816004819055505050565b5f60015f9054906101000a900460ff16905090565b60045481565b61065861112c565b60035483101561069d576040517f08c379a000000000000000000000000000000000000000000000000000000000815260040161069490611ace565b60405180910390fd5b6004548311156106e2576040517f08c379a00000000000000000000000000000000000000000000000000000000081526004016106d990611b36565b60405180910390fd5b7f000000000000000000000000000000000000000000000000000000000000000063ffffffff168263ffffffff1603610750576040517f08c379a000000000000000000000000000000000000000000000000000000000815260040161074790611b9e565b60405180910390fd5b5f5f1b8103610794576040517f08c379a000000000000000000000000000000000000000000000000000000000815260040161078b90611c06565b60405180910390fd5b60018054906101000a900473ffffffffffffffffffffffffffffffffffffffff1673ffffffffffffffffffffffffffffffffffffffff166379cc679033856040518363ffffffff1660e01b81526004016107ef929190611a4d565b5f604051808303815f87803b158015610806575f5ffd5b505af1158015610818573d5f5f3e3d5ffd5b505050505f60065f81819054906101000a900467ffffffffffffffff168092919061084290611c51565b91906101000a81548167ffffffffffffffff021916908367ffffffffffffffff16021790555090505f7f00000000000000000000000000000000000000000000000000000000000000008260405160200161089e929190611ce8565b6040516020818303038152906040528051906020012090503373ffffffffffffffffffffffffffffffffffffffff16817fcc60eb1b3f5810a2e5641e76e82a36d7db467416781141ce2b38f62d8b27bd03878787876040516109039493929190611d13565b60405180910390a35050505050565b5f5f1b61091e81610e9e565b61092661116d565b50565b5f5f1b61093581610e9e565b816003819055505050565b7f000000000000000000000000000000000000000000000000000000000000000081565b5f5f5f8481526020019081526020015f205f015f8373ffffffffffffffffffffffffffffffffffffffff1673ffffffffffffffffffffffffffffffffffffffff1681526020019081526020015f205f9054906101000a900460ff16905092915050565b60035481565b5f5f1b6109d981610e9e565b8160025f6101000a81548173ffffffffffffffffffffffffffffffffffffffff021916908373ffffffffffffffffffffffffffffffffffffffff1602179055505050565b5f5f1b81565b60065f9054906101000a900467ffffffffffffffff1681565b610a4582610488565b610a4e81610e9e565b610a588383610fa2565b50505050565b610a6661112c565b7f000000000000000000000000000000000000000000000000000000000000000063ffffffff16836060016020810190610aa09190611d56565b63ffffffff1614610ae6576040517f08c379a0000000000000000000000000000000000000000000000000000000008152600401610add90611dcb565b60405180910390fd5b60055f846020013581526020019081526020015f205f9054906101000a900460ff1615610b48576040517f08c379a0000000000000000000000000000000000000000000000000000000008152600401610b3f90611e33565b60405180910390fd5b5f835f016020810190610b5b9190611d56565b8460200135856040016020810190610b739190611d56565b866060016020810190610b869190611d56565b87608001358860a001358960c001358a60e00135604051602001610bb1989796959493929190611e51565b6040516020818303038152906040528051906020012090505f610bd3826111ce565b90505f610c2c85858080601f0160208091040260200160405190810160405280939291908181526020018383808284375f81840152601f19601f820116905080830192505050505050508361120190919063ffffffff16565b905060025f9054906101000a900473ffffffffffffffffffffffffffffffffffffffff1673ffffffffffffffffffffffffffffffffffffffff168173ffffffffffffffffffffffffffffffffffffffff1614610cbd576040517f08c379a0000000000000000000000000000000000000000000000000000000008152600401610cb490611f17565b60405180910390fd5b600160055f886020013581526020019081526020015f205f6101000a81548160ff0219169083151502179055505f8660a001355f1c905060018054906101000a900473ffffffffffffffffffffffffffffffffffffffff1673ffffffffffffffffffffffffffffffffffffffff166340c10f19828960c001356040518363ffffffff1660e01b8152600401610d53929190611a4d565b5f604051808303815f87803b158015610d6a575f5ffd5b505af1158015610d7c573d5f5f3e3d5ffd5b505050508073ffffffffffffffffffffffffffffffffffffffff1687602001357fe545099cbcf0016d6d03a8d3297b6701600c3c61eb801d1bafcefaeb02cc98da8960c001358a6040016020810190610dd59190611d56565b604051610de3929190611f35565b60405180910390a350505050505050565b60018054906101000a900473ffffffffffffffffffffffffffffffffffffffff1681565b6005602052805f5260405f205f915054906101000a900460ff1681565b5f7f01ffc9a7000000000000000000000000000000000000000000000000000000007bffffffffffffffffffffffffffffffffffffffffffffffffffffffff1916827bffffffffffffffffffffffffffffffffffffffffffffffffffffffff1916149050919050565b610eaf81610eaa610f9b565b61122b565b50565b5f610ebd8383610964565b610f915760015f5f8581526020019081526020015f205f015f8473ffffffffffffffffffffffffffffffffffffffff1673ffffffffffffffffffffffffffffffffffffffff1681526020019081526020015f205f6101000a81548160ff021916908315150217905550610f2e610f9b565b73ffffffffffffffffffffffffffffffffffffffff168273ffffffffffffffffffffffffffffffffffffffff16847f2f8788117e7eff1d82e926ec794901d17c78024a50270940304540a733656f0d60405160405180910390a460019050610f95565b5f90505b92915050565b5f33905090565b5f610fad8383610964565b15611081575f5f5f8581526020019081526020015f205f015f8473ffffffffffffffffffffffffffffffffffffffff1673ffffffffffffffffffffffffffffffffffffffff1681526020019081526020015f205f6101000a81548160ff02191690831515021790555061101e610f9b565b73ffffffffffffffffffffffffffffffffffffffff168273ffffffffffffffffffffffffffffffffffffffff16847ff6391f5c32d9c69d2a47ea670b442974b53935d1edc7fd64eb21e047a839171b60405160405180910390a460019050611085565b5f90505b92915050565b6110936110ec565b5f60015f6101000a81548160ff0219169083151502179055507f5db9ee0a495bf2e6ff9c91a7834c1ba4fdd244a5e8aa4e537bd38aeae4b073aa6110d5610f9b565b6040516110e29190611773565b60405180910390a1565b6110f4610635565b61112a576040517f8dfc202b00000000000000000000000000000000000000000000000000000000815260040160405180910390fd5b565b611134610635565b1561116b576040517fd93c066500000000000000000000000000000000000000000000000000000000815260040160405180910390fd5b565b61117561112c565b6001805f6101000a81548160ff0219169083151502179055507f62e78cea01bee320cd4e420270b5ea74000d11b0c9f74754ebdbfc544b05a2586111b7610f9b565b6040516111c49190611773565b60405180910390a1565b5f7f19457468657265756d205369676e6564204d6573736167653a0a3332000000005f5281601c52603c5f209050919050565b5f5f5f5f61120f868661127c565b92509250925061121f82826112d1565b82935050505092915050565b6112358282610964565b6112785780826040517fe2517d3f00000000000000000000000000000000000000000000000000000000815260040161126f929190611f5c565b60405180910390fd5b5050565b5f5f5f60418451036112bc575f5f5f602087015192506040870151915060608701515f1a90506112ae88828585611433565b9550955095505050506112ca565b5f600285515f1b9250925092505b9250925092565b5f60038111156112e4576112e3611f83565b5b8260038111156112f7576112f6611f83565b5b031561142f576001600381111561131157611310611f83565b5b82600381111561132457611323611f83565b5b0361135b576040517ff645eedf00000000000000000000000000000000000000000000000000000000815260040160405180910390fd5b6002600381111561136f5761136e611f83565b5b82600381111561138257611381611f83565b5b036113c657805f1c6040517ffce698f70000000000000000000000000000000000000000000000000000000081526004016113bd91906117c6565b60405180910390fd5b6003808111156113d9576113d8611f83565b5b8260038111156113ec576113eb611f83565b5b0361142e57806040517fd78bce0c0000000000000000000000000000000000000000000000000000000081526004016114259190611642565b60405180910390fd5b5b5050565b5f5f5f7f7fffffffffffffffffffffffffffffff5d576e7357a4501ddfe92f46681b20a0845f1c111561146f575f600385925092509250611510565b5f6001888888886040515f81526020016040526040516114929493929190611fcb565b6020604051602081039080840390855afa1580156114b2573d5f5f3e3d5ffd5b5050506020604051035190505f73ffffffffffffffffffffffffffffffffffffffff168173ffffffffffffffffffffffffffffffffffffffff1603611503575f60015f5f1b93509350935050611510565b805f5f5f1b935093509350505b9450945094915050565b5f5ffd5b5f5ffd5b5f7fffffffff0000000000000000000000000000000000000000000000000000000082169050919050565b61155681611522565b8114611560575f5ffd5b50565b5f813590506115718161154d565b92915050565b5f6020828403121561158c5761158b61151a565b5b5f61159984828501611563565b91505092915050565b5f8115159050919050565b6115b6816115a2565b82525050565b5f6020820190506115cf5f8301846115ad565b92915050565b5f819050919050565b6115e7816115d5565b81146115f1575f5ffd5b50565b5f81359050611602816115de565b92915050565b5f6020828403121561161d5761161c61151a565b5b5f61162a848285016115f4565b91505092915050565b61163c816115d5565b82525050565b5f6020820190506116555f830184611633565b92915050565b5f73ffffffffffffffffffffffffffffffffffffffff82169050919050565b5f6116848261165b565b9050919050565b6116948161167a565b811461169e575f5ffd5b50565b5f813590506116af8161168b565b92915050565b5f5f604083850312156116cb576116ca61151a565b5b5f6116d8858286016115f4565b92505060206116e9858286016116a1565b9150509250929050565b5f819050919050565b611705816116f3565b811461170f575f5ffd5b50565b5f81359050611720816116fc565b92915050565b5f5f6040838503121561173c5761173b61151a565b5b5f611749858286016116a1565b925050602061175a85828601611712565b9150509250929050565b61176d8161167a565b82525050565b5f6020820190506117865f830184611764565b92915050565b5f602082840312156117a1576117a061151a565b5b5f6117ae84828501611712565b91505092915050565b6117c0816116f3565b82525050565b5f6020820190506117d95f8301846117b7565b92915050565b5f63ffffffff82169050919050565b6117f7816117df565b8114611801575f5ffd5b50565b5f81359050611812816117ee565b92915050565b5f5f5f6060848603121561182f5761182e61151a565b5b5f61183c86828701611712565b935050602061184d86828701611804565b925050604061185e868287016115f4565b9150509250925092565b611871816117df565b82525050565b5f60208201905061188a5f830184611868565b92915050565b5f602082840312156118a5576118a461151a565b5b5f6118b2848285016116a1565b91505092915050565b5f67ffffffffffffffff82169050919050565b6118d7816118bb565b82525050565b5f6020820190506118f05f8301846118ce565b92915050565b5f5ffd5b5f61010082840312156119105761190f6118f6565b5b81905092915050565b5f5ffd5b5f5ffd5b5f5ffd5b5f5f83601f84011261193a57611939611919565b5b8235905067ffffffffffffffff8111156119575761195661191d565b5b60208301915083600182028301111561197357611972611921565b5b9250929050565b5f5f5f61012084860312156119925761199161151a565b5b5f61199f868287016118fa565b93505061010084013567ffffffffffffffff8111156119c1576119c061151e565b5b6119cd86828701611925565b92509250509250925092565b5f819050919050565b5f6119fc6119f76119f28461165b565b6119d9565b61165b565b9050919050565b5f611a0d826119e2565b9050919050565b5f611a1e82611a03565b9050919050565b611a2e81611a14565b82525050565b5f602082019050611a475f830184611a25565b92915050565b5f604082019050611a605f830185611764565b611a6d60208301846117b7565b9392505050565b5f82825260208201905092915050565b7f416d6f756e742062656c6f77206d696e696d756d0000000000000000000000005f82015250565b5f611ab8601483611a74565b9150611ac382611a84565b602082019050919050565b5f6020820190508181035f830152611ae581611aac565b9050919050565b7f416d6f756e742061626f7665206d6178696d756d0000000000000000000000005f82015250565b5f611b20601483611a74565b9150611b2b82611aec565b602082019050919050565b5f6020820190508181035f830152611b4d81611b14565b9050919050565b7f43616e6e6f742062726964676520746f2073616d6520636861696e00000000005f82015250565b5f611b88601b83611a74565b9150611b9382611b54565b602082019050919050565b5f6020820190508181035f830152611bb581611b7c565b9050919050565b7f496e76616c696420726563697069656e740000000000000000000000000000005f82015250565b5f611bf0601183611a74565b9150611bfb82611bbc565b602082019050919050565b5f6020820190508181035f830152611c1d81611be4565b9050919050565b7f4e487b71000000000000000000000000000000000000000000000000000000005f52601160045260245ffd5b5f611c5b826118bb565b915067ffffffffffffffff8203611c7557611c74611c24565b5b600182019050919050565b5f8160e01b9050919050565b5f611c9682611c80565b9050919050565b611cae611ca9826117df565b611c8c565b82525050565b5f8160c01b9050919050565b5f611cca82611cb4565b9050919050565b611ce2611cdd826118bb565b611cc0565b82525050565b5f611cf38285611c9d565b600482019150611d038284611cd1565b6008820191508190509392505050565b5f608082019050611d265f8301876117b7565b611d336020830186611868565b611d406040830185611633565b611d4d60608301846118ce565b95945050505050565b5f60208284031215611d6b57611d6a61151a565b5b5f611d7884828501611804565b91505092915050565b7f57726f6e672064657374696e6174696f6e0000000000000000000000000000005f82015250565b5f611db5601183611a74565b9150611dc082611d81565b602082019050919050565b5f6020820190508181035f830152611de281611da9565b9050919050565b7f416c72656164792070726f6365737365640000000000000000000000000000005f82015250565b5f611e1d601183611a74565b9150611e2882611de9565b602082019050919050565b5f6020820190508181035f830152611e4a81611e11565b9050919050565b5f61010082019050611e655f83018b611868565b611e72602083018a611633565b611e7f6040830189611868565b611e8c6060830188611868565b611e996080830187611633565b611ea660a0830186611633565b611eb360c08301856117b7565b611ec060e0830184611633565b9998505050505050505050565b7f496e76616c6964206174746573746174696f6e000000000000000000000000005f82015250565b5f611f01601383611a74565b9150611f0c82611ecd565b602082019050919050565b5f6020820190508181035f830152611f2e81611ef5565b9050919050565b5f604082019050611f485f8301856117b7565b611f556020830184611868565b9392505050565b5f604082019050611f6f5f830185611764565b611f7c6020830184611633565b9392505050565b7f4e487b71000000000000000000000000000000000000000000000000000000005f52602160045260245ffd5b5f60ff82169050919050565b611fc581611fb0565b82525050565b5f608082019050611fde5f830187611633565b611feb6020830186611fbc565b611ff86040830185611633565b6120056060830184611633565b9594505050505056fea264697066735822122037a4ac02c0767851a060efd1c95f0da09eda538073bdeda28b8f5d4332cb39b764736f6c634300081c0033","opcodes":"PUSH1 0xA0 PUSH1 0x40 MSTORE CALLVALUE DUP1 ISZERO PUSH2 0xF JUMPI PUSH0 PUSH0 REVERT JUMPDEST POP PUSH1 0x40 MLOAD PUSH2 0x2414 CODESIZE SUB DUP1 PUSH2 0x2414 DUP4 CODECOPY DUP2 DUP2 ADD PUSH1 0x40 MSTORE DUP2 ADD SWAP1 PUSH2 0x31 SWAP2 SWAP1 PUSH2 0x31A JUMP JUMPDEST DUP6 PUSH1 0x1 DUP1 PUSH2 0x100 EXP DUP2 SLOAD DUP2 PUSH20 0xFFFFFFFFFFFFFFFFFFFFFFFFFFFFFFFFFFFFFFFF MUL NOT AND SWAP1 DUP4 PUSH20 0xFFFFFFFFFFFFFFFFFFFFFFFFFFFFFFFFFFFFFFFF AND MUL OR SWAP1 SSTORE POP DUP5 PUSH1 0x2 PUSH0 PUSH2 0x100 EXP DUP2 SLOAD DUP2 PUSH20 0xFFFFFFFFFFFFFFFFFFFFFFFFFFFFFFFFFFFFFFFF MUL NOT AND SWAP1 DUP4 PUSH20 0xFFFFFFFFFFFFFFFFFFFFFFFFFFFFFFFFFFFFFFFF AND MUL OR SWAP1 SSTORE POP DUP4 PUSH4 0xFFFFFFFF AND PUSH1 0x80 DUP2 PUSH4 0xFFFFFFFF AND DUP2 MSTORE POP POP DUP3 PUSH1 0x3 DUP2 SWAP1 SSTORE POP DUP2 PUSH1 0x4 DUP2 SWAP1 SSTORE POP PUSH2 0xE5 PUSH0 PUSH0 SHL DUP3 PUSH2 0xF1 PUSH1 0x20 SHL PUSH1 0x20 SHR JUMP JUMPDEST POP POP POP POP POP POP POP PUSH2 0x3A3 JUMP JUMPDEST PUSH0 PUSH2 0x102 DUP4 DUP4 PUSH2 0x1E6 PUSH1 0x20 SHL PUSH1 0x20 SHR JUMP JUMPDEST PUSH2 0x1DC JUMPI PUSH1 0x1 PUSH0 PUSH0 DUP6 DUP2 MSTORE PUSH1 0x20 ADD SWAP1 DUP2 MSTORE PUSH1 0x20 ADD PUSH0 KECCAK256 PUSH0 ADD PUSH0 DUP5 PUSH20 0xFFFFFFFFFFFFFFFFFFFFFFFFFFFFFFFFFFFFFFFF AND PUSH20 0xFFFFFFFFFFFFFFFFFFFFFFFFFFFFFFFFFFFFFFFF AND DUP2 MSTORE PUSH1 0x20 ADD SWAP1 DUP2 MSTORE PUSH1 0x20 ADD PUSH0 KECCAK256 PUSH0 PUSH2 0x100 EXP DUP2 SLOAD DUP2 PUSH1 0xFF MUL NOT AND SWAP1 DUP4 ISZERO ISZERO MUL OR SWAP1 SSTORE POP PUSH2 0x179 PUSH2 0x249 PUSH1 0x20 SHL PUSH1 0x20 SHR JUMP JUMPDEST PUSH20 0xFFFFFFFFFFFFFFFFFFFFFFFFFFFFFFFFFFFFFFFF AND DUP3 PUSH20 0xFFFFFFFFFFFFFFFFFFFFFFFFFFFFFFFFFFFFFFFF AND DUP5 PUSH32 0x2F8788117E7EFF1D82E926EC794901D17C78024A50270940304540A733656F0D PUSH1 0x40 MLOAD PUSH1 0x40 MLOAD DUP1 SWAP2 SUB SWAP1 LOG4 PUSH1 0x1 SWAP1 POP PUSH2 0x1E0 JUMP JUMPDEST PUSH0 SWAP1 POP JUMPDEST SWAP3 SWAP2 POP POP JUMP JUMPDEST PUSH0 PUSH0 PUSH0 DUP5 DUP2 MSTORE PUSH1 0x20 ADD SWAP1 DUP2 MSTORE PUSH1 0x20 ADD PUSH0 KECCAK256 PUSH0 ADD PUSH0 DUP4 PUSH20 0xFFFFFFFFFFFFFFFFFFFFFFFFFFFFFFFFFFFFFFFF AND PUSH20 0xFFFFFFFFFFFFFFFFFFFFFFFFFFFFFFFFFFFFFFFF AND DUP2 MSTORE PUSH1 0x20 ADD SWAP1 DUP2 MSTORE PUSH1 0x20 ADD PUSH0 KECCAK256 PUSH0 SWAP1 SLOAD SWAP1 PUSH2 0x100 EXP SWAP1 DIV PUSH1 0xFF AND SWAP1 POP SWAP3 SWAP2 POP POP JUMP JUMPDEST PUSH0 CALLER SWAP1 POP SWAP1 JUMP JUMPDEST PUSH0 PUSH0 REVERT JUMPDEST PUSH0 PUSH20 0xFFFFFFFFFFFFFFFFFFFFFFFFFFFFFFFFFFFFFFFF DUP3 AND SWAP1 POP SWAP2 SWAP1 POP JUMP JUMPDEST PUSH0 PUSH2 0x27D DUP3 PUSH2 0x254 JUMP JUMPDEST SWAP1 POP SWAP2 SWAP1 POP JUMP JUMPDEST PUSH2 0x28D DUP2 PUSH2 0x273 JUMP JUMPDEST DUP2 EQ PUSH2 0x297 JUMPI PUSH0 PUSH0 REVERT JUMPDEST POP JUMP JUMPDEST PUSH0 DUP2 MLOAD SWAP1 POP PUSH2 0x2A8 DUP2 PUSH2 0x284 JUMP JUMPDEST SWAP3 SWAP2 POP POP JUMP JUMPDEST PUSH0 PUSH4 0xFFFFFFFF DUP3 AND SWAP1 POP SWAP2 SWAP1 POP JUMP JUMPDEST PUSH2 0x2C6 DUP2 PUSH2 0x2AE JUMP JUMPDEST DUP2 EQ PUSH2 0x2D0 JUMPI PUSH0 PUSH0 REVERT JUMPDEST POP JUMP JUMPDEST PUSH0 DUP2 MLOAD SWAP1 POP PUSH2 0x2E1 DUP2 PUSH2 0x2BD JUMP JUMPDEST SWAP3 SWAP2 POP POP JUMP JUMPDEST PUSH0 DUP2 SWAP1 POP SWAP2 SWAP1 POP JUMP JUMPDEST PUSH2 0x2F9 DUP2 PUSH2 0x2E7 JUMP JUMPDEST DUP2 EQ PUSH2 0x303 JUMPI PUSH0 PUSH0 REVERT JUMPDEST POP JUMP JUMPDEST PUSH0 DUP2 MLOAD SWAP1 POP PUSH2 0x314 DUP2 PUSH2 0x2F0 JUMP JUMPDEST SWAP3 SWAP2 POP POP JUMP JUMPDEST PUSH0 PUSH0 PUSH0 PUSH0 PUSH0 PUSH0 PUSH1 0xC0 DUP8 DUP10 SUB SLT ISZERO PUSH2 0x334 JUMPI PUSH2 0x333 PUSH2 0x250 JUMP JUMPDEST JUMPDEST PUSH0 PUSH2 0x341 DUP10 DUP3 DUP11 ADD PUSH2 0x29A JUMP JUMPDEST SWAP7 POP POP PUSH1 0x20 PUSH2 0x352 DUP10 DUP3 DUP11 ADD PUSH2 0x29A JUMP JUMPDEST SWAP6 POP POP PUSH1 0x40 PUSH2 0x363 DUP10 DUP3 DUP11 ADD PUSH2 0x2D3 JUMP JUMPDEST SWAP5 POP POP PUSH1 0x60 PUSH2 0x374 DUP10 DUP3 DUP11 ADD PUSH2 0x306 JUMP JUMPDEST SWAP4 POP POP PUSH1 0x80 PUSH2 0x385 DUP10 DUP3 DUP11 ADD PUSH2 0x306 JUMP JUMPDEST SWAP3 POP POP PUSH1 0xA0 PUSH2 0x396 DUP10 DUP3 DUP11 ADD PUSH2 0x29A JUMP JUMPDEST SWAP2 POP POP SWAP3 SWAP6 POP SWAP3 SWAP6 POP SWAP3 SWAP6 JUMP JUMPDEST PUSH1 0x80 MLOAD PUSH2 0x2044 PUSH2 0x3D0 PUSH0 CODECOPY PUSH0 DUP2 DUP2 PUSH2 0x6E4 ADD MSTORE DUP2 DUP2 PUSH2 0x86D ADD MSTORE DUP2 DUP2 PUSH2 0x942 ADD MSTORE PUSH2 0xA68 ADD MSTORE PUSH2 0x2044 PUSH0 RETURN INVALID PUSH1 0x80 PUSH1 0x40 MSTORE CALLVALUE DUP1 ISZERO PUSH2 0xF JUMPI PUSH0 PUSH0 REVERT JUMPDEST POP PUSH1 0x4 CALLDATASIZE LT PUSH2 0x14B JUMPI PUSH0 CALLDATALOAD PUSH1 0xE0 SHR DUP1 PUSH4 0x8456CB59 GT PUSH2 0xC1 JUMPI DUP1 PUSH4 0xA217FDDF GT PUSH2 0x7A JUMPI DUP1 PUSH4 0xA217FDDF EQ PUSH2 0x34D JUMPI DUP1 PUSH4 0xAFFED0E0 EQ PUSH2 0x36B JUMPI DUP1 PUSH4 0xD547741F EQ PUSH2 0x389 JUMPI DUP1 PUSH4 0xEF537E6C EQ PUSH2 0x3A5 JUMPI DUP1 PUSH4 0xFC0C546A EQ PUSH2 0x3C1 JUMPI DUP1 PUSH4 0xFEB61724 EQ PUSH2 0x3DF JUMPI PUSH2 0x14B JUMP JUMPDEST DUP1 PUSH4 0x8456CB59 EQ PUSH2 0x29F JUMPI DUP1 PUSH4 0x897B0637 EQ PUSH2 0x2A9 JUMPI DUP1 PUSH4 0x8D3638F4 EQ PUSH2 0x2C5 JUMPI DUP1 PUSH4 0x91D14854 EQ PUSH2 0x2E3 JUMPI DUP1 PUSH4 0x9B2CB5D8 EQ PUSH2 0x313 JUMPI DUP1 PUSH4 0x9DAF85AB EQ PUSH2 0x331 JUMPI PUSH2 0x14B JUMP JUMPDEST DUP1 PUSH4 0x43785DC9 GT PUSH2 0x113 JUMPI DUP1 PUSH4 0x43785DC9 EQ PUSH2 0x1F1 JUMPI DUP1 PUSH4 0x47B0C3B3 EQ PUSH2 0x20D JUMPI DUP1 PUSH4 0x4FE47F70 EQ PUSH2 0x22B JUMPI DUP1 PUSH4 0x5C975ABB EQ PUSH2 0x247 JUMPI DUP1 PUSH4 0x5F48F393 EQ PUSH2 0x265 JUMPI DUP1 PUSH4 0x7EAAC98F EQ PUSH2 0x283 JUMPI PUSH2 0x14B JUMP JUMPDEST DUP1 PUSH4 0x1FFC9A7 EQ PUSH2 0x14F JUMPI DUP1 PUSH4 0x248A9CA3 EQ PUSH2 0x17F JUMPI DUP1 PUSH4 0x2F2FF15D EQ PUSH2 0x1AF JUMPI DUP1 PUSH4 0x36568ABE EQ PUSH2 0x1CB JUMPI DUP1 PUSH4 0x3F4BA83A EQ PUSH2 0x1E7 JUMPI JUMPDEST PUSH0 PUSH0 REVERT JUMPDEST PUSH2 0x169 PUSH1 0x4 DUP1 CALLDATASIZE SUB DUP2 ADD SWAP1 PUSH2 0x164 SWAP2 SWAP1 PUSH2 0x1577 JUMP JUMPDEST PUSH2 0x40F JUMP JUMPDEST PUSH1 0x40 MLOAD PUSH2 0x176 SWAP2 SWAP1 PUSH2 0x15BC JUMP JUMPDEST PUSH1 0x40 MLOAD DUP1 SWAP2 SUB SWAP1 RETURN JUMPDEST PUSH2 0x199 PUSH1 0x4 DUP1 CALLDATASIZE SUB DUP2 ADD SWAP1 PUSH2 0x194 SWAP2 SWAP1 PUSH2 0x1608 JUMP JUMPDEST PUSH2 0x488 JUMP JUMPDEST PUSH1 0x40 MLOAD PUSH2 0x1A6 SWAP2 SWAP1 PUSH2 0x1642 JUMP JUMPDEST PUSH1 0x40 MLOAD DUP1 SWAP2 SUB SWAP1 RETURN JUMPDEST PUSH2 0x1C9 PUSH1 0x4 DUP1 CALLDATASIZE SUB DUP2 ADD SWAP1 PUSH2 0x1C4 SWAP2 SWAP1 PUSH2 0x16B5 JUMP JUMPDEST PUSH2 0x4A4 JUMP JUMPDEST STOP JUMPDEST PUSH2 0x1E5 PUSH1 0x4 DUP1 CALLDATASIZE SUB DUP2 ADD SWAP1 PUSH2 0x1E0 SWAP2 SWAP1 PUSH2 0x16B5 JUMP JUMPDEST PUSH2 0x4C6 JUMP JUMPDEST STOP JUMPDEST PUSH2 0x1EF PUSH2 0x541 JUMP JUMPDEST STOP JUMPDEST PUSH2 0x20B PUSH1 0x4 DUP1 CALLDATASIZE SUB DUP2 ADD SWAP1 PUSH2 0x206 SWAP2 SWAP1 PUSH2 0x1726 JUMP JUMPDEST PUSH2 0x558 JUMP JUMPDEST STOP JUMPDEST PUSH2 0x215 PUSH2 0x5F9 JUMP JUMPDEST PUSH1 0x40 MLOAD PUSH2 0x222 SWAP2 SWAP1 PUSH2 0x1773 JUMP JUMPDEST PUSH1 0x40 MLOAD DUP1 SWAP2 SUB SWAP1 RETURN JUMPDEST PUSH2 0x245 PUSH1 0x4 DUP1 CALLDATASIZE SUB DUP2 ADD SWAP1 PUSH2 0x240 SWAP2 SWAP1 PUSH2 0x178C JUMP JUMPDEST PUSH2 0x61E JUMP JUMPDEST STOP JUMPDEST PUSH2 0x24F PUSH2 0x635 JUMP JUMPDEST PUSH1 0x40 MLOAD PUSH2 0x25C SWAP2 SWAP1 PUSH2 0x15BC JUMP JUMPDEST PUSH1 0x40 MLOAD DUP1 SWAP2 SUB SWAP1 RETURN JUMPDEST PUSH2 0x26D PUSH2 0x64A JUMP JUMPDEST PUSH1 0x40 MLOAD PUSH2 0x27A SWAP2 SWAP1 PUSH2 0x17C6 JUMP JUMPDEST PUSH1 0x40 MLOAD DUP1 SWAP2 SUB SWAP1 RETURN JUMPDEST PUSH2 0x29D PUSH1 0x4 DUP1 CALLDATASIZE SUB DUP2 ADD SWAP1 PUSH2 0x298 SWAP2 SWAP1 PUSH2 0x1818 JUMP JUMPDEST PUSH2 0x650 JUMP JUMPDEST STOP JUMPDEST PUSH2 0x2A7 PUSH2 0x912 JUMP JUMPDEST STOP JUMPDEST PUSH2 0x2C3 PUSH1 0x4 DUP1 CALLDATASIZE SUB DUP2 ADD SWAP1 PUSH2 0x2BE SWAP2 SWAP1 PUSH2 0x178C JUMP JUMPDEST PUSH2 0x929 JUMP JUMPDEST STOP JUMPDEST PUSH2 0x2CD PUSH2 0x940 JUMP JUMPDEST PUSH1 0x40 MLOAD PUSH2 0x2DA SWAP2 SWAP1 PUSH2 0x1877 JUMP JUMPDEST PUSH1 0x40 MLOAD DUP1 SWAP2 SUB SWAP1 RETURN JUMPDEST PUSH2 0x2FD PUSH1 0x4 DUP1 CALLDATASIZE SUB DUP2 ADD SWAP1 PUSH2 0x2F8 SWAP2 SWAP1 PUSH2 0x16B5 JUMP JUMPDEST PUSH2 0x964 JUMP JUMPDEST PUSH1 0x40 MLOAD PUSH2 0x30A SWAP2 SWAP1 PUSH2 0x15BC JUMP JUMPDEST PUSH1 0x40 MLOAD DUP1 SWAP2 SUB SWAP1 RETURN JUMPDEST PUSH2 0x31B PUSH2 0x9C7 JUMP JUMPDEST PUSH1 0x40 MLOAD PUSH2 0x328 SWAP2 SWAP1 PUSH2 0x17C6 JUMP JUMPDEST PUSH1 0x40 MLOAD DUP1 SWAP2 SUB SWAP1 RETURN JUMPDEST PUSH2 0x34B PUSH1 0x4 DUP1 CALLDATASIZE SUB DUP2 ADD SWAP1 PUSH2 0x346 SWAP2 SWAP1 PUSH2 0x1890 JUMP JUMPDEST PUSH2 0x9CD JUMP JUMPDEST STOP JUMPDEST PUSH2 0x355 PUSH2 0xA1D JUMP JUMPDEST PUSH1 0x40 MLOAD PUSH2 0x362 SWAP2 SWAP1 PUSH2 0x1642 JUMP JUMPDEST PUSH1 0x40 MLOAD DUP1 SWAP2 SUB SWAP1 RETURN JUMPDEST PUSH2 0x373 PUSH2 0xA23 JUMP JUMPDEST PUSH1 0x40 MLOAD PUSH2 0x380 SWAP2 SWAP1 PUSH2 0x18DD JUMP JUMPDEST PUSH1 0x40 MLOAD DUP1 SWAP2 SUB SWAP1 RETURN JUMPDEST PUSH2 0x3A3 PUSH1 0x4 DUP1 CALLDATASIZE SUB DUP2 ADD SWAP1 PUSH2 0x39E SWAP2 SWAP1 PUSH2 0x16B5 JUMP JUMPDEST PUSH2 0xA3C JUMP JUMPDEST STOP JUMPDEST PUSH2 0x3BF PUSH1 0x4 DUP1 CALLDATASIZE SUB DUP2 ADD SWAP1 PUSH2 0x3BA SWAP2 SWAP1 PUSH2 0x197A JUMP JUMPDEST PUSH2 0xA5E JUMP JUMPDEST STOP JUMPDEST PUSH2 0x3C9 PUSH2 0xDF4 JUMP JUMPDEST PUSH1 0x40 MLOAD PUSH2 0x3D6 SWAP2 SWAP1 PUSH2 0x1A34 JUMP JUMPDEST PUSH1 0x40 MLOAD DUP1 SWAP2 SUB SWAP1 RETURN JUMPDEST PUSH2 0x3F9 PUSH1 0x4 DUP1 CALLDATASIZE SUB DUP2 ADD SWAP1 PUSH2 0x3F4 SWAP2 SWAP1 PUSH2 0x1608 JUMP JUMPDEST PUSH2 0xE18 JUMP JUMPDEST PUSH1 0x40 MLOAD PUSH2 0x406 SWAP2 SWAP1 PUSH2 0x15BC JUMP JUMPDEST PUSH1 0x40 MLOAD DUP1 SWAP2 SUB SWAP1 RETURN JUMPDEST PUSH0 PUSH32 0x7965DB0B00000000000000000000000000000000000000000000000000000000 PUSH28 0xFFFFFFFFFFFFFFFFFFFFFFFFFFFFFFFFFFFFFFFFFFFFFFFFFFFFFFFF NOT AND DUP3 PUSH28 0xFFFFFFFFFFFFFFFFFFFFFFFFFFFFFFFFFFFFFFFFFFFFFFFFFFFFFFFF NOT AND EQ DUP1 PUSH2 0x481 JUMPI POP PUSH2 0x480 DUP3 PUSH2 0xE35 JUMP JUMPDEST JUMPDEST SWAP1 POP SWAP2 SWAP1 POP JUMP JUMPDEST PUSH0 PUSH0 PUSH0 DUP4 DUP2 MSTORE PUSH1 0x20 ADD SWAP1 DUP2 MSTORE PUSH1 0x20 ADD PUSH0 KECCAK256 PUSH1 0x1 ADD SLOAD SWAP1 POP SWAP2 SWAP1 POP JUMP JUMPDEST PUSH2 0x4AD DUP3 PUSH2 0x488 JUMP JUMPDEST PUSH2 0x4B6 DUP2 PUSH2 0xE9E JUMP JUMPDEST PUSH2 0x4C0 DUP4 DUP4 PUSH2 0xEB2 JUMP JUMPDEST POP POP POP POP JUMP JUMPDEST PUSH2 0x4CE PUSH2 0xF9B JUMP JUMPDEST PUSH20 0xFFFFFFFFFFFFFFFFFFFFFFFFFFFFFFFFFFFFFFFF AND DUP2 PUSH20 0xFFFFFFFFFFFFFFFFFFFFFFFFFFFFFFFFFFFFFFFF AND EQ PUSH2 0x532 JUMPI PUSH1 0x40 MLOAD PUSH32 0x6697B23200000000000000000000000000000000000000000000000000000000 DUP2 MSTORE PUSH1 0x4 ADD PUSH1 0x40 MLOAD DUP1 SWAP2 SUB SWAP1 REVERT JUMPDEST PUSH2 0x53C DUP3 DUP3 PUSH2 0xFA2 JUMP JUMPDEST POP POP POP JUMP JUMPDEST PUSH0 PUSH0 SHL PUSH2 0x54D DUP2 PUSH2 0xE9E JUMP JUMPDEST PUSH2 0x555 PUSH2 0x108B JUMP JUMPDEST POP JUMP JUMPDEST PUSH0 PUSH0 SHL PUSH2 0x564 DUP2 PUSH2 0xE9E JUMP JUMPDEST PUSH2 0x56C PUSH2 0x10EC JUMP JUMPDEST PUSH1 0x1 DUP1 SLOAD SWAP1 PUSH2 0x100 EXP SWAP1 DIV PUSH20 0xFFFFFFFFFFFFFFFFFFFFFFFFFFFFFFFFFFFFFFFF AND PUSH20 0xFFFFFFFFFFFFFFFFFFFFFFFFFFFFFFFFFFFFFFFF AND PUSH4 0x40C10F19 DUP5 DUP5 PUSH1 0x40 MLOAD DUP4 PUSH4 0xFFFFFFFF AND PUSH1 0xE0 SHL DUP2 MSTORE PUSH1 0x4 ADD PUSH2 0x5C7 SWAP3 SWAP2 SWAP1 PUSH2 0x1A4D JUMP JUMPDEST PUSH0 PUSH1 0x40 MLOAD DUP1 DUP4 SUB DUP2 PUSH0 DUP8 DUP1 EXTCODESIZE ISZERO DUP1 ISZERO PUSH2 0x5DE JUMPI PUSH0 PUSH0 REVERT JUMPDEST POP GAS CALL ISZERO DUP1 ISZERO PUSH2 0x5F0 JUMPI RETURNDATASIZE PUSH0 PUSH0 RETURNDATACOPY RETURNDATASIZE PUSH0 REVERT JUMPDEST POP POP POP POP POP POP POP JUMP JUMPDEST PUSH1 0x2 PUSH0 SWAP1 SLOAD SWAP1 PUSH2 0x100 EXP SWAP1 DIV PUSH20 0xFFFFFFFFFFFFFFFFFFFFFFFFFFFFFFFFFFFFFFFF AND DUP2 JUMP JUMPDEST PUSH0 PUSH0 SHL PUSH2 0x62A DUP2 PUSH2 0xE9E JUMP JUMPDEST DUP2 PUSH1 0x4 DUP2 SWAP1 SSTORE POP POP POP JUMP JUMPDEST PUSH0 PUSH1 0x1 PUSH0 SWAP1 SLOAD SWAP1 PUSH2 0x100 EXP SWAP1 DIV PUSH1 0xFF AND SWAP1 POP SWAP1 JUMP JUMPDEST PUSH1 0x4 SLOAD DUP2 JUMP JUMPDEST PUSH2 0x658 PUSH2 0x112C JUMP JUMPDEST PUSH1 0x3 SLOAD DUP4 LT ISZERO PUSH2 0x69D JUMPI PUSH1 0x40 MLOAD PUSH32 0x8C379A000000000000000000000000000000000000000000000000000000000 DUP2 MSTORE PUSH1 0x4 ADD PUSH2 0x694 SWAP1 PUSH2 0x1ACE JUMP JUMPDEST PUSH1 0x40 MLOAD DUP1 SWAP2 SUB SWAP1 REVERT JUMPDEST PUSH1 0x4 SLOAD DUP4 GT ISZERO PUSH2 0x6E2 JUMPI PUSH1 0x40 MLOAD PUSH32 0x8C379A000000000000000000000000000000000000000000000000000000000 DUP2 MSTORE PUSH1 0x4 ADD PUSH2 0x6D9 SWAP1 PUSH2 0x1B36 JUMP JUMPDEST PUSH1 0x40 MLOAD DUP1 SWAP2 SUB SWAP1 REVERT JUMPDEST PUSH32 0x0 PUSH4 0xFFFFFFFF AND DUP3 PUSH4 0xFFFFFFFF AND SUB PUSH2 0x750 JUMPI PUSH1 0x40 MLOAD PUSH32 0x8C379A000000000000000000000000000000000000000000000000000000000 DUP2 MSTORE PUSH1 0x4 ADD PUSH2 0x747 SWAP1 PUSH2 0x1B9E JUMP JUMPDEST PUSH1 0x40 MLOAD DUP1 SWAP2 SUB SWAP1 REVERT JUMPDEST PUSH0 PUSH0 SHL DUP2 SUB PUSH2 0x794 JUMPI PUSH1 0x40 MLOAD PUSH32 0x8C379A000000000000000000000000000000000000000000000000000000000 DUP2 MSTORE PUSH1 0x4 ADD PUSH2 0x78B SWAP1 PUSH2 0x1C06 JUMP JUMPDEST PUSH1 0x40 MLOAD DUP1 SWAP2 SUB SWAP1 REVERT JUMPDEST PUSH1 0x1 DUP1 SLOAD SWAP1 PUSH2 0x100 EXP SWAP1 DIV PUSH20 0xFFFFFFFFFFFFFFFFFFFFFFFFFFFFFFFFFFFFFFFF AND PUSH20 0xFFFFFFFFFFFFFFFFFFFFFFFFFFFFFFFFFFFFFFFF AND PUSH4 0x79CC6790 CALLER DUP6 PUSH1 0x40 MLOAD DUP4 PUSH4 0xFFFFFFFF AND PUSH1 0xE0 SHL DUP2 MSTORE PUSH1 0x4 ADD PUSH2 0x7EF SWAP3 SWAP2 SWAP1 PUSH2 0x1A4D JUMP JUMPDEST PUSH0 PUSH1 0x40 MLOAD DUP1 DUP4 SUB DUP2 PUSH0 DUP8 DUP1 EXTCODESIZE ISZERO DUP1 ISZERO PUSH2 0x806 JUMPI PUSH0 PUSH0 REVERT JUMPDEST POP GAS CALL ISZERO DUP1 ISZERO PUSH2 0x818 JUMPI RETURNDATASIZE PUSH0 PUSH0 RETURNDATACOPY RETURNDATASIZE PUSH0 REVERT JUMPDEST POP POP POP POP PUSH0 PUSH1 0x6 PUSH0 DUP2 DUP2 SWAP1 SLOAD SWAP1 PUSH2 0x100 EXP SWAP1 DIV PUSH8 0xFFFFFFFFFFFFFFFF AND DUP1 SWAP3 SWAP2 SWAP1 PUSH2 0x842 SWAP1 PUSH2 0x1C51 JUMP JUMPDEST SWAP2 SWAP1 PUSH2 0x100 EXP DUP2 SLOAD DUP2 PUSH8 0xFFFFFFFFFFFFFFFF MUL NOT AND SWAP1 DUP4 PUSH8 0xFFFFFFFFFFFFFFFF AND MUL OR SWAP1 SSTORE POP SWAP1 POP PUSH0 PUSH32 0x0 DUP3 PUSH1 0x40 MLOAD PUSH1 0x20 ADD PUSH2 0x89E SWAP3 SWAP2 SWAP1 PUSH2 0x1CE8 JUMP JUMPDEST PUSH1 0x40 MLOAD PUSH1 0x20 DUP2 DUP4 SUB SUB DUP2 MSTORE SWAP1 PUSH1 0x40 MSTORE DUP1 MLOAD SWAP1 PUSH1 0x20 ADD KECCAK256 SWAP1 POP CALLER PUSH20 0xFFFFFFFFFFFFFFFFFFFFFFFFFFFFFFFFFFFFFFFF AND DUP2 PUSH32 0xCC60EB1B3F5810A2E5641E76E82A36D7DB467416781141CE2B38F62D8B27BD03 DUP8 DUP8 DUP8 DUP8 PUSH1 0x40 MLOAD PUSH2 0x903 SWAP5 SWAP4 SWAP3 SWAP2 SWAP1 PUSH2 0x1D13 JUMP JUMPDEST PUSH1 0x40 MLOAD DUP1 SWAP2 SUB SWAP1 LOG3 POP POP POP POP POP JUMP JUMPDEST PUSH0 PUSH0 SHL PUSH2 0x91E DUP2 PUSH2 0xE9E JUMP JUMPDEST PUSH2 0x926 PUSH2 0x116D JUMP JUMPDEST POP JUMP JUMPDEST PUSH0 PUSH0 SHL PUSH2 0x935 DUP2 PUSH2 0xE9E JUMP JUMPDEST DUP2 PUSH1 0x3 DUP2 SWAP1 SSTORE POP POP POP JUMP JUMPDEST PUSH32 0x0 DUP2 JUMP JUMPDEST PUSH0 PUSH0 PUSH0 DUP5 DUP2 MSTORE PUSH1 0x20 ADD SWAP1 DUP2 MSTORE PUSH1 0x20 ADD PUSH0 KECCAK256 PUSH0 ADD PUSH0 DUP4 PUSH20 0xFFFFFFFFFFFFFFFFFFFFFFFFFFFFFFFFFFFFFFFF AND PUSH20 0xFFFFFFFFFFFFFFFFFFFFFFFFFFFFFFFFFFFFFFFF AND DUP2 MSTORE PUSH1 0x20 ADD SWAP1 DUP2 MSTORE PUSH1 0x20 ADD PUSH0 KECCAK256 PUSH0 SWAP1 SLOAD SWAP1 PUSH2 0x100 EXP SWAP1 DIV PUSH1 0xFF AND SWAP1 POP SWAP3 SWAP2 POP POP JUMP JUMPDEST PUSH1 0x3 SLOAD DUP2 JUMP JUMPDEST PUSH0 PUSH0 SHL PUSH2 0x9D9 DUP2 PUSH2 0xE9E JUMP JUMPDEST DUP2 PUSH1 0x2 PUSH0 PUSH2 0x100 EXP DUP2 SLOAD DUP2 PUSH20 0xFFFFFFFFFFFFFFFFFFFFFFFFFFFFFFFFFFFFFFFF MUL NOT AND SWAP1 DUP4 PUSH20 0xFFFFFFFFFFFFFFFFFFFFFFFFFFFFFFFFFFFFFFFF AND MUL OR SWAP1 SSTORE POP POP POP JUMP JUMPDEST PUSH0 PUSH0 SHL DUP2 JUMP JUMPDEST PUSH1 0x6 PUSH0 SWAP1 SLOAD SWAP1 PUSH2 0x100 EXP SWAP1 DIV PUSH8 0xFFFFFFFFFFFFFFFF AND DUP2 JUMP JUMPDEST PUSH2 0xA45 DUP3 PUSH2 0x488 JUMP JUMPDEST PUSH2 0xA4E DUP2 PUSH2 0xE9E JUMP JUMPDEST PUSH2 0xA58 DUP4 DUP4 PUSH2 0xFA2 JUMP JUMPDEST POP POP POP POP JUMP JUMPDEST PUSH2 0xA66 PUSH2 0x112C JUMP JUMPDEST PUSH32 0x0 PUSH4 0xFFFFFFFF AND DUP4 PUSH1 0x60 ADD PUSH1 0x20 DUP2 ADD SWAP1 PUSH2 0xAA0 SWAP2 SWAP1 PUSH2 0x1D56 JUMP JUMPDEST PUSH4 0xFFFFFFFF AND EQ PUSH2 0xAE6 JUMPI PUSH1 0x40 MLOAD PUSH32 0x8C379A000000000000000000000000000000000000000000000000000000000 DUP2 MSTORE PUSH1 0x4 ADD PUSH2 0xADD SWAP1 PUSH2 0x1DCB JUMP JUMPDEST PUSH1 0x40 MLOAD DUP1 SWAP2 SUB SWAP1 REVERT JUMPDEST PUSH1 0x5 PUSH0 DUP5 PUSH1 0x20 ADD CALLDATALOAD DUP2 MSTORE PUSH1 0x20 ADD SWAP1 DUP2 MSTORE PUSH1 0x20 ADD PUSH0 KECCAK256 PUSH0 SWAP1 SLOAD SWAP1 PUSH2 0x100 EXP SWAP1 DIV PUSH1 0xFF AND ISZERO PUSH2 0xB48 JUMPI PUSH1 0x40 MLOAD PUSH32 0x8C379A000000000000000000000000000000000000000000000000000000000 DUP2 MSTORE PUSH1 0x4 ADD PUSH2 0xB3F SWAP1 PUSH2 0x1E33 JUMP JUMPDEST PUSH1 0x40 MLOAD DUP1 SWAP2 SUB SWAP1 REVERT JUMPDEST PUSH0 DUP4 PUSH0 ADD PUSH1 0x20 DUP2 ADD SWAP1 PUSH2 0xB5B SWAP2 SWAP1 PUSH2 0x1D56 JUMP JUMPDEST DUP5 PUSH1 0x20 ADD CALLDATALOAD DUP6 PUSH1 0x40 ADD PUSH1 0x20 DUP2 ADD SWAP1 PUSH2 0xB73 SWAP2 SWAP1 PUSH2 0x1D56 JUMP JUMPDEST DUP7 PUSH1 0x60 ADD PUSH1 0x20 DUP2 ADD SWAP1 PUSH2 0xB86 SWAP2 SWAP1 PUSH2 0x1D56 JUMP JUMPDEST DUP8 PUSH1 0x80 ADD CALLDATALOAD DUP9 PUSH1 0xA0 ADD CALLDATALOAD DUP10 PUSH1 0xC0 ADD CALLDATALOAD DUP11 PUSH1 0xE0 ADD CALLDATALOAD PUSH1 0x40 MLOAD PUSH1 0x20 ADD PUSH2 0xBB1 SWAP9 SWAP8 SWAP7 SWAP6 SWAP5 SWAP4 SWAP3 SWAP2 SWAP1 PUSH2 0x1E51 JUMP JUMPDEST PUSH1 0x40 MLOAD PUSH1 0x20 DUP2 DUP4 SUB SUB DUP2 MSTORE SWAP1 PUSH1 0x40 MSTORE DUP1 MLOAD SWAP1 PUSH1 0x20 ADD KECCAK256 SWAP1 POP PUSH0 PUSH2 0xBD3 DUP3 PUSH2 0x11CE JUMP JUMPDEST SWAP1 POP PUSH0 PUSH2 0xC2C DUP6 DUP6 DUP1 DUP1 PUSH1 0x1F ADD PUSH1 0x20 DUP1 SWAP2 DIV MUL PUSH1 0x20 ADD PUSH1 0x40 MLOAD SWAP1 DUP2 ADD PUSH1 0x40 MSTORE DUP1 SWAP4 SWAP3 SWAP2 SWAP1 DUP2 DUP2 MSTORE PUSH1 0x20 ADD DUP4 DUP4 DUP1 DUP3 DUP5 CALLDATACOPY PUSH0 DUP2 DUP5 ADD MSTORE PUSH1 0x1F NOT PUSH1 0x1F DUP3 ADD AND SWAP1 POP DUP1 DUP4 ADD SWAP3 POP POP POP POP POP POP POP DUP4 PUSH2 0x1201 SWAP1 SWAP2 SWAP1 PUSH4 0xFFFFFFFF AND JUMP JUMPDEST SWAP1 POP PUSH1 0x2 PUSH0 SWAP1 SLOAD SWAP1 PUSH2 0x100 EXP SWAP1 DIV PUSH20 0xFFFFFFFFFFFFFFFFFFFFFFFFFFFFFFFFFFFFFFFF AND PUSH20 0xFFFFFFFFFFFFFFFFFFFFFFFFFFFFFFFFFFFFFFFF AND DUP2 PUSH20 0xFFFFFFFFFFFFFFFFFFFFFFFFFFFFFFFFFFFFFFFF AND EQ PUSH2 0xCBD JUMPI PUSH1 0x40 MLOAD PUSH32 0x8C379A000000000000000000000000000000000000000000000000000000000 DUP2 MSTORE PUSH1 0x4 ADD PUSH2 0xCB4 SWAP1 PUSH2 0x1F17 JUMP JUMPDEST PUSH1 0x40 MLOAD DUP1 SWAP2 SUB SWAP1 REVERT JUMPDEST PUSH1 0x1 PUSH1 0x5 PUSH0 DUP9 PUSH1 0x20 ADD CALLDATALOAD DUP2 MSTORE PUSH1 0x20 ADD SWAP1 DUP2 MSTORE PUSH1 0x20 ADD PUSH0 KECCAK256 PUSH0 PUSH2 0x100 EXP DUP2 SLOAD DUP2 PUSH1 0xFF MUL NOT AND SWAP1 DUP4 ISZERO ISZERO MUL OR SWAP1 SSTORE POP PUSH0 DUP7 PUSH1 0xA0 ADD CALLDATALOAD PUSH0 SHR SWAP1 POP PUSH1 0x1 DUP1 SLOAD SWAP1 PUSH2 0x100 EXP SWAP1 DIV PUSH20 0xFFFFFFFFFFFFFFFFFFFFFFFFFFFFFFFFFFFFFFFF AND PUSH20 0xFFFFFFFFFFFFFFFFFFFFFFFFFFFFFFFFFFFFFFFF AND PUSH4 0x40C10F19 DUP3 DUP10 PUSH1 0xC0 ADD CALLDATALOAD PUSH1 0x40 MLOAD DUP4 PUSH4 0xFFFFFFFF AND PUSH1 0xE0 SHL DUP2 MSTORE PUSH1 0x4 ADD PUSH2 0xD53 SWAP3 SWAP2 SWAP1 PUSH2 0x1A4D JUMP JUMPDEST PUSH0 PUSH1 0x40 MLOAD DUP1 DUP4 SUB DUP2 PUSH0 DUP8 DUP1 EXTCODESIZE ISZERO DUP1 ISZERO PUSH2 0xD6A JUMPI PUSH0 PUSH0 REVERT JUMPDEST POP GAS CALL ISZERO DUP1 ISZERO PUSH2 0xD7C JUMPI RETURNDATASIZE PUSH0 PUSH0 RETURNDATACOPY RETURNDATASIZE PUSH0 REVERT JUMPDEST POP POP POP POP DUP1 PUSH20 0xFFFFFFFFFFFFFFFFFFFFFFFFFFFFFFFFFFFFFFFF AND DUP8 PUSH1 0x20 ADD CALLDATALOAD PUSH32 0xE545099CBCF0016D6D03A8D3297B6701600C3C61EB801D1BAFCEFAEB02CC98DA DUP10 PUSH1 0xC0 ADD CALLDATALOAD DUP11 PUSH1 0x40 ADD PUSH1 0x20 DUP2 ADD SWAP1 PUSH2 0xDD5 SWAP2 SWAP1 PUSH2 0x1D56 JUMP JUMPDEST PUSH1 0x40 MLOAD PUSH2 0xDE3 SWAP3 SWAP2 SWAP1 PUSH2 0x1F35 JUMP JUMPDEST PUSH1 0x40 MLOAD DUP1 SWAP2 SUB SWAP1 LOG3 POP POP POP POP POP POP POP JUMP JUMPDEST PUSH1 0x1 DUP1 SLOAD SWAP1 PUSH2 0x100 EXP SWAP1 DIV PUSH20 0xFFFFFFFFFFFFFFFFFFFFFFFFFFFFFFFFFFFFFFFF AND DUP2 JUMP JUMPDEST PUSH1 0x5 PUSH1 0x20 MSTORE DUP1 PUSH0 MSTORE PUSH1 0x40 PUSH0 KECCAK256 PUSH0 SWAP2 POP SLOAD SWAP1 PUSH2 0x100 EXP SWAP1 DIV PUSH1 0xFF AND DUP2 JUMP JUMPDEST PUSH0 PUSH32 0x1FFC9A700000000000000000000000000000000000000000000000000000000 PUSH28 0xFFFFFFFFFFFFFFFFFFFFFFFFFFFFFFFFFFFFFFFFFFFFFFFFFFFFFFFF NOT AND DUP3 PUSH28 0xFFFFFFFFFFFFFFFFFFFFFFFFFFFFFFFFFFFFFFFFFFFFFFFFFFFFFFFF NOT AND EQ SWAP1 POP SWAP2 SWAP1 POP JUMP JUMPDEST PUSH2 0xEAF DUP2 PUSH2 0xEAA PUSH2 0xF9B JUMP JUMPDEST PUSH2 0x122B JUMP JUMPDEST POP JUMP JUMPDEST PUSH0 PUSH2 0xEBD DUP4 DUP4 PUSH2 0x964 JUMP JUMPDEST PUSH2 0xF91 JUMPI PUSH1 0x1 PUSH0 PUSH0 DUP6 DUP2 MSTORE PUSH1 0x20 ADD SWAP1 DUP2 MSTORE PUSH1 0x20 ADD PUSH0 KECCAK256 PUSH0 ADD PUSH0 DUP5 PUSH20 0xFFFFFFFFFFFFFFFFFFFFFFFFFFFFFFFFFFFFFFFF AND PUSH20 0xFFFFFFFFFFFFFFFFFFFFFFFFFFFFFFFFFFFFFFFF AND DUP2 MSTORE PUSH1 0x20 ADD SWAP1 DUP2 MSTORE PUSH1 0x20 ADD PUSH0 KECCAK256 PUSH0 PUSH2 0x100 EXP DUP2 SLOAD DUP2 PUSH1 0xFF MUL NOT AND SWAP1 DUP4 ISZERO ISZERO MUL OR SWAP1 SSTORE POP PUSH2 0xF2E PUSH2 0xF9B JUMP JUMPDEST PUSH20 0xFFFFFFFFFFFFFFFFFFFFFFFFFFFFFFFFFFFFFFFF AND DUP3 PUSH20 0xFFFFFFFFFFFFFFFFFFFFFFFFFFFFFFFFFFFFFFFF AND DUP5 PUSH32 0x2F8788117E7EFF1D82E926EC794901D17C78024A50270940304540A733656F0D PUSH1 0x40 MLOAD PUSH1 0x40 MLOAD DUP1 SWAP2 SUB SWAP1 LOG4 PUSH1 0x1 SWAP1 POP PUSH2 0xF95 JUMP JUMPDEST PUSH0 SWAP1 POP JUMPDEST SWAP3 SWAP2 POP POP JUMP JUMPDEST PUSH0 CALLER SWAP1 POP SWAP1 JUMP JUMPDEST PUSH0 PUSH2 0xFAD DUP4 DUP4 PUSH2 0x964 JUMP JUMPDEST ISZERO PUSH2 0x1081 JUMPI PUSH0 PUSH0 PUSH0 DUP6 DUP2 MSTORE PUSH1 0x20 ADD SWAP1 DUP2 MSTORE PUSH1 0x20 ADD PUSH0 KECCAK256 PUSH0 ADD PUSH0 DUP5 PUSH20 0xFFFFFFFFFFFFFFFFFFFFFFFFFFFFFFFFFFFFFFFF AND PUSH20 0xFFFFFFFFFFFFFFFFFFFFFFFFFFFFFFFFFFFFFFFF AND DUP2 MSTORE PUSH1 0x20 ADD SWAP1 DUP2 MSTORE PUSH1 0x20 ADD PUSH0 KECCAK256 PUSH0 PUSH2 0x100 EXP DUP2 SLOAD DUP2 PUSH1 0xFF MUL NOT AND SWAP1 DUP4 ISZERO ISZERO MUL OR SWAP1 SSTORE POP PUSH2 0x101E PUSH2 0xF9B JUMP JUMPDEST PUSH20 0xFFFFFFFFFFFFFFFFFFFFFFFFFFFFFFFFFFFFFFFF AND DUP3 PUSH20 0xFFFFFFFFFFFFFFFFFFFFFFFFFFFFFFFFFFFFFFFF AND DUP5 PUSH32 0xF6391F5C32D9C69D2A47EA670B442974B53935D1EDC7FD64EB21E047A839171B PUSH1 0x40 MLOAD PUSH1 0x40 MLOAD DUP1 SWAP2 SUB SWAP1 LOG4 PUSH1 0x1 SWAP1 POP PUSH2 0x1085 JUMP JUMPDEST PUSH0 SWAP1 POP JUMPDEST SWAP3 SWAP2 POP POP JUMP JUMPDEST PUSH2 0x1093 PUSH2 0x10EC JUMP JUMPDEST PUSH0 PUSH1 0x1 PUSH0 PUSH2 0x100 EXP DUP2 SLOAD DUP2 PUSH1 0xFF MUL NOT AND SWAP1 DUP4 ISZERO ISZERO MUL OR SWAP1 SSTORE POP PUSH32 0x5DB9EE0A495BF2E6FF9C91A7834C1BA4FDD244A5E8AA4E537BD38AEAE4B073AA PUSH2 0x10D5 PUSH2 0xF9B JUMP JUMPDEST PUSH1 0x40 MLOAD PUSH2 0x10E2 SWAP2 SWAP1 PUSH2 0x1773 JUMP JUMPDEST PUSH1 0x40 MLOAD DUP1 SWAP2 SUB SWAP1 LOG1 JUMP JUMPDEST PUSH2 0x10F4 PUSH2 0x635 JUMP JUMPDEST PUSH2 0x112A JUMPI PUSH1 0x40 MLOAD PUSH32 0x8DFC202B00000000000000000000000000000000000000000000000000000000 DUP2 MSTORE PUSH1 0x4 ADD PUSH1 0x40 MLOAD DUP1 SWAP2 SUB SWAP1 REVERT JUMPDEST JUMP JUMPDEST PUSH2 0x1134 PUSH2 0x635 JUMP JUMPDEST ISZERO PUSH2 0x116B JUMPI PUSH1 0x40 MLOAD PUSH32 0xD93C066500000000000000000000000000000000000000000000000000000000 DUP2 MSTORE PUSH1 0x4 ADD PUSH1 0x40 MLOAD DUP1 SWAP2 SUB SWAP1 REVERT JUMPDEST JUMP JUMPDEST PUSH2 0x1175 PUSH2 0x112C JUMP JUMPDEST PUSH1 0x1 DUP1 PUSH0 PUSH2 0x100 EXP DUP2 SLOAD DUP2 PUSH1 0xFF MUL NOT AND SWAP1 DUP4 ISZERO ISZERO MUL OR SWAP1 SSTORE POP PUSH32 0x62E78CEA01BEE320CD4E420270B5EA74000D11B0C9F74754EBDBFC544B05A258 PUSH2 0x11B7 PUSH2 0xF9B JUMP JUMPDEST PUSH1 0x40 MLOAD PUSH2 0x11C4 SWAP2 SWAP1 PUSH2 0x1773 JUMP JUMPDEST PUSH1 0x40 MLOAD DUP1 SWAP2 SUB SWAP1 LOG1 JUMP JUMPDEST PUSH0 PUSH32 0x19457468657265756D205369676E6564204D6573736167653A0A333200000000 PUSH0 MSTORE DUP2 PUSH1 0x1C MSTORE PUSH1 0x3C PUSH0 KECCAK256 SWAP1 POP SWAP2 SWAP1 POP JUMP JUMPDEST PUSH0 PUSH0 PUSH0 PUSH0 PUSH2 0x120F DUP7 DUP7 PUSH2 0x127C JUMP JUMPDEST SWAP3 POP SWAP3 POP SWAP3 POP PUSH2 0x121F DUP3 DUP3 PUSH2 0x12D1 JUMP JUMPDEST DUP3 SWAP4 POP POP POP POP SWAP3 SWAP2 POP POP JUMP JUMPDEST PUSH2 0x1235 DUP3 DUP3 PUSH2 0x964 JUMP JUMPDEST PUSH2 0x1278 JUMPI DUP1 DUP3 PUSH1 0x40 MLOAD PUSH32 0xE2517D3F00000000000000000000000000000000000000000000000000000000 DUP2 MSTORE PUSH1 0x4 ADD PUSH2 0x126F SWAP3 SWAP2 SWAP1 PUSH2 0x1F5C JUMP JUMPDEST PUSH1 0x40 MLOAD DUP1 SWAP2 SUB SWAP1 REVERT JUMPDEST POP POP JUMP JUMPDEST PUSH0 PUSH0 PUSH0 PUSH1 0x41 DUP5 MLOAD SUB PUSH2 0x12BC JUMPI PUSH0 PUSH0 PUSH0 PUSH1 0x20 DUP8 ADD MLOAD SWAP3 POP PUSH1 0x40 DUP8 ADD MLOAD SWAP2 POP PUSH1 0x60 DUP8 ADD MLOAD PUSH0 BYTE SWAP1 POP PUSH2 0x12AE DUP9 DUP3 DUP6 DUP6 PUSH2 0x1433 JUMP JUMPDEST SWAP6 POP SWAP6 POP SWAP6 POP POP POP POP PUSH2 0x12CA JUMP JUMPDEST PUSH0 PUSH1 0x2 DUP6 MLOAD PUSH0 SHL SWAP3 POP SWAP3 POP SWAP3 POP JUMPDEST SWAP3 POP SWAP3 POP SWAP3 JUMP JUMPDEST PUSH0 PUSH1 0x3 DUP2 GT ISZERO PUSH2 0x12E4 JUMPI PUSH2 0x12E3 PUSH2 0x1F83 JUMP JUMPDEST JUMPDEST DUP3 PUSH1 0x3 DUP2 GT ISZERO PUSH2 0x12F7 JUMPI PUSH2 0x12F6 PUSH2 0x1F83 JUMP JUMPDEST JUMPDEST SUB ISZERO PUSH2 0x142F JUMPI PUSH1 0x1 PUSH1 0x3 DUP2 GT ISZERO PUSH2 0x1311 JUMPI PUSH2 0x1310 PUSH2 0x1F83 JUMP JUMPDEST JUMPDEST DUP3 PUSH1 0x3 DUP2 GT ISZERO PUSH2 0x1324 JUMPI PUSH2 0x1323 PUSH2 0x1F83 JUMP JUMPDEST JUMPDEST SUB PUSH2 0x135B JUMPI PUSH1 0x40 MLOAD PUSH32 0xF645EEDF00000000000000000000000000000000000000000000000000000000 DUP2 MSTORE PUSH1 0x4 ADD PUSH1 0x40 MLOAD DUP1 SWAP2 SUB SWAP1 REVERT JUMPDEST PUSH1 0x2 PUSH1 0x3 DUP2 GT ISZERO PUSH2 0x136F JUMPI PUSH2 0x136E PUSH2 0x1F83 JUMP JUMPDEST JUMPDEST DUP3 PUSH1 0x3 DUP2 GT ISZERO PUSH2 0x1382 JUMPI PUSH2 0x1381 PUSH2 0x1F83 JUMP JUMPDEST JUMPDEST SUB PUSH2 0x13C6 JUMPI DUP1 PUSH0 SHR PUSH1 0x40 MLOAD PUSH32 0xFCE698F700000000000000000000000000000000000000000000000000000000 DUP2 MSTORE PUSH1 0x4 ADD PUSH2 0x13BD SWAP2 SWAP1 PUSH2 0x17C6 JUMP JUMPDEST PUSH1 0x40 MLOAD DUP1 SWAP2 SUB SWAP1 REVERT JUMPDEST PUSH1 0x3 DUP1 DUP2 GT ISZERO PUSH2 0x13D9 JUMPI PUSH2 0x13D8 PUSH2 0x1F83 JUMP JUMPDEST JUMPDEST DUP3 PUSH1 0x3 DUP2 GT ISZERO PUSH2 0x13EC JUMPI PUSH2 0x13EB PUSH2 0x1F83 JUMP JUMPDEST JUMPDEST SUB PUSH2 0x142E JUMPI DUP1 PUSH1 0x40 MLOAD PUSH32 0xD78BCE0C00000000000000000000000000000000000000000000000000000000 DUP2 MSTORE PUSH1 0x4 ADD PUSH2 0x1425 SWAP2 SWAP1 PUSH2 0x1642 JUMP JUMPDEST PUSH1 0x40 MLOAD DUP1 SWAP2 SUB SWAP1 REVERT JUMPDEST JUMPDEST POP POP JUMP JUMPDEST PUSH0 PUSH0 PUSH0 PUSH32 0x7FFFFFFFFFFFFFFFFFFFFFFFFFFFFFFF5D576E7357A4501DDFE92F46681B20A0 DUP5 PUSH0 SHR GT ISZERO PUSH2 0x146F JUMPI PUSH0 PUSH1 0x3 DUP6 SWAP3 POP SWAP3 POP SWAP3 POP PUSH2 0x1510 JUMP JUMPDEST PUSH0 PUSH1 0x1 DUP9 DUP9 DUP9 DUP9 PUSH1 0x40 MLOAD PUSH0 DUP2 MSTORE PUSH1 0x20 ADD PUSH1 0x40 MSTORE PUSH1 0x40 MLOAD PUSH2 0x1492 SWAP5 SWAP4 SWAP3 SWAP2 SWAP1 PUSH2 0x1FCB JUMP JUMPDEST PUSH1 0x20 PUSH1 0x40 MLOAD PUSH1 0x20 DUP2 SUB SWAP1 DUP1 DUP5 SUB SWAP1 DUP6 GAS STATICCALL ISZERO DUP1 ISZERO PUSH2 0x14B2 JUMPI RETURNDATASIZE PUSH0 PUSH0 RETURNDATACOPY RETURNDATASIZE PUSH0 REVERT JUMPDEST POP POP POP PUSH1 0x20 PUSH1 0x40 MLOAD SUB MLOAD SWAP1 POP PUSH0 PUSH20 0xFFFFFFFFFFFFFFFFFFFFFFFFFFFFFFFFFFFFFFFF AND DUP2 PUSH20 0xFFFFFFFFFFFFFFFFFFFFFFFFFFFFFFFFFFFFFFFF AND SUB PUSH2 0x1503 JUMPI PUSH0 PUSH1 0x1 PUSH0 PUSH0 SHL SWAP4 POP SWAP4 POP SWAP4 POP POP PUSH2 0x1510 JUMP JUMPDEST DUP1 PUSH0 PUSH0 PUSH0 SHL SWAP4 POP SWAP4 POP SWAP4 POP POP JUMPDEST SWAP5 POP SWAP5 POP SWAP5 SWAP2 POP POP JUMP JUMPDEST PUSH0 PUSH0 REVERT JUMPDEST PUSH0 PUSH0 REVERT JUMPDEST PUSH0 PUSH32 0xFFFFFFFF00000000000000000000000000000000000000000000000000000000 DUP3 AND SWAP1 POP SWAP2 SWAP1 POP JUMP JUMPDEST PUSH2 0x1556 DUP2 PUSH2 0x1522 JUMP JUMPDEST DUP2 EQ PUSH2 0x1560 JUMPI PUSH0 PUSH0 REVERT JUMPDEST POP JUMP JUMPDEST PUSH0 DUP2 CALLDATALOAD SWAP1 POP PUSH2 0x1571 DUP2 PUSH2 0x154D JUMP JUMPDEST SWAP3 SWAP2 POP POP JUMP JUMPDEST PUSH0 PUSH1 0x20 DUP3 DUP5 SUB SLT ISZERO PUSH2 0x158C JUMPI PUSH2 0x158B PUSH2 0x151A JUMP JUMPDEST JUMPDEST PUSH0 PUSH2 0x1599 DUP5 DUP3 DUP6 ADD PUSH2 0x1563 JUMP JUMPDEST SWAP2 POP POP SWAP3 SWAP2 POP POP JUMP JUMPDEST PUSH0 DUP2 ISZERO ISZERO SWAP1 POP SWAP2 SWAP1 POP JUMP JUMPDEST PUSH2 0x15B6 DUP2 PUSH2 0x15A2 JUMP JUMPDEST DUP3 MSTORE POP POP JUMP JUMPDEST PUSH0 PUSH1 0x20 DUP3 ADD SWAP1 POP PUSH2 0x15CF PUSH0 DUP4 ADD DUP5 PUSH2 0x15AD JUMP JUMPDEST SWAP3 SWAP2 POP POP JUMP JUMPDEST PUSH0 DUP2 SWAP1 POP SWAP2 SWAP1 POP JUMP JUMPDEST PUSH2 0x15E7 DUP2 PUSH2 0x15D5 JUMP JUMPDEST DUP2 EQ PUSH2 0x15F1 JUMPI PUSH0 PUSH0 REVERT JUMPDEST POP JUMP JUMPDEST PUSH0 DUP2 CALLDATALOAD SWAP1 POP PUSH2 0x1602 DUP2 PUSH2 0x15DE JUMP JUMPDEST SWAP3 SWAP2 POP POP JUMP JUMPDEST PUSH0 PUSH1 0x20 DUP3 DUP5 SUB SLT ISZERO PUSH2 0x161D JUMPI PUSH2 0x161C PUSH2 0x151A JUMP JUMPDEST JUMPDEST PUSH0 PUSH2 0x162A DUP5 DUP3 DUP6 ADD PUSH2 0x15F4 JUMP JUMPDEST SWAP2 POP POP SWAP3 SWAP2 POP POP JUMP JUMPDEST PUSH2 0x163C DUP2 PUSH2 0x15D5 JUMP JUMPDEST DUP3 MSTORE POP POP JUMP JUMPDEST PUSH0 PUSH1 0x20 DUP3 ADD SWAP1 POP PUSH2 0x1655 PUSH0 DUP4 ADD DUP5 PUSH2 0x1633 JUMP JUMPDEST SWAP3 SWAP2 POP POP JUMP JUMPDEST PUSH0 PUSH20 0xFFFFFFFFFFFFFFFFFFFFFFFFFFFFFFFFFFFFFFFF DUP3 AND SWAP1 POP SWAP2 SWAP1 POP JUMP JUMPDEST PUSH0 PUSH2 0x1684 DUP3 PUSH2 0x165B JUMP JUMPDEST SWAP1 POP SWAP2 SWAP1 POP JUMP JUMPDEST PUSH2 0x1694 DUP2 PUSH2 0x167A JUMP JUMPDEST DUP2 EQ PUSH2 0x169E JUMPI PUSH0 PUSH0 REVERT JUMPDEST POP JUMP JUMPDEST PUSH0 DUP2 CALLDATALOAD SWAP1 POP PUSH2 0x16AF DUP2 PUSH2 0x168B JUMP JUMPDEST SWAP3 SWAP2 POP POP JUMP JUMPDEST PUSH0 PUSH0 PUSH1 0x40 DUP4 DUP6 SUB SLT ISZERO PUSH2 0x16CB JUMPI PUSH2 0x16CA PUSH2 0x151A JUMP JUMPDEST JUMPDEST PUSH0 PUSH2 0x16D8 DUP6 DUP3 DUP7 ADD PUSH2 0x15F4 JUMP JUMPDEST SWAP3 POP POP PUSH1 0x20 PUSH2 0x16E9 DUP6 DUP3 DUP7 ADD PUSH2 0x16A1 JUMP JUMPDEST SWAP2 POP POP SWAP3 POP SWAP3 SWAP1 POP JUMP JUMPDEST PUSH0 DUP2 SWAP1 POP SWAP2 SWAP1 POP JUMP JUMPDEST PUSH2 0x1705 DUP2 PUSH2 0x16F3 JUMP JUMPDEST DUP2 EQ PUSH2 0x170F JUMPI PUSH0 PUSH0 REVERT JUMPDEST POP JUMP JUMPDEST PUSH0 DUP2 CALLDATALOAD SWAP1 POP PUSH2 0x1720 DUP2 PUSH2 0x16FC JUMP JUMPDEST SWAP3 SWAP2 POP POP JUMP JUMPDEST PUSH0 PUSH0 PUSH1 0x40 DUP4 DUP6 SUB SLT ISZERO PUSH2 0x173C JUMPI PUSH2 0x173B PUSH2 0x151A JUMP JUMPDEST JUMPDEST PUSH0 PUSH2 0x1749 DUP6 DUP3 DUP7 ADD PUSH2 0x16A1 JUMP JUMPDEST SWAP3 POP POP PUSH1 0x20 PUSH2 0x175A DUP6 DUP3 DUP7 ADD PUSH2 0x1712 JUMP JUMPDEST SWAP2 POP POP SWAP3 POP SWAP3 SWAP1 POP JUMP JUMPDEST PUSH2 0x176D DUP2 PUSH2 0x167A JUMP JUMPDEST DUP3 MSTORE POP POP JUMP JUMPDEST PUSH0 PUSH1 0x20 DUP3 ADD SWAP1 POP PUSH2 0x1786 PUSH0 DUP4 ADD DUP5 PUSH2 0x1764 JUMP JUMPDEST SWAP3 SWAP2 POP POP JUMP JUMPDEST PUSH0 PUSH1 0x20 DUP3 DUP5 SUB SLT ISZERO PUSH2 0x17A1 JUMPI PUSH2 0x17A0 PUSH2 0x151A JUMP JUMPDEST JUMPDEST PUSH0 PUSH2 0x17AE DUP5 DUP3 DUP6 ADD PUSH2 0x1712 JUMP JUMPDEST SWAP2 POP POP SWAP3 SWAP2 POP POP JUMP JUMPDEST PUSH2 0x17C0 DUP2 PUSH2 0x16F3 JUMP JUMPDEST DUP3 MSTORE POP POP JUMP JUMPDEST PUSH0 PUSH1 0x20 DUP3 ADD SWAP1 POP PUSH2 0x17D9 PUSH0 DUP4 ADD DUP5 PUSH2 0x17B7 JUMP JUMPDEST SWAP3 SWAP2 POP POP JUMP JUMPDEST PUSH0 PUSH4 0xFFFFFFFF DUP3 AND SWAP1 POP SWAP2 SWAP1 POP JUMP JUMPDEST PUSH2 0x17F7 DUP2 PUSH2 0x17DF JUMP JUMPDEST DUP2 EQ PUSH2 0x1801 JUMPI PUSH0 PUSH0 REVERT JUMPDEST POP JUMP JUMPDEST PUSH0 DUP2 CALLDATALOAD SWAP1 POP PUSH2 0x1812 DUP2 PUSH2 0x17EE JUMP JUMPDEST SWAP3 SWAP2 POP POP JUMP JUMPDEST PUSH0 PUSH0 PUSH0 PUSH1 0x60 DUP5 DUP7 SUB SLT ISZERO PUSH2 0x182F JUMPI PUSH2 0x182E PUSH2 0x151A JUMP JUMPDEST JUMPDEST PUSH0 PUSH2 0x183C DUP7 DUP3 DUP8 ADD PUSH2 0x1712 JUMP JUMPDEST SWAP4 POP POP PUSH1 0x20 PUSH2 0x184D DUP7 DUP3 DUP8 ADD PUSH2 0x1804 JUMP JUMPDEST SWAP3 POP POP PUSH1 0x40 PUSH2 0x185E DUP7 DUP3 DUP8 ADD PUSH2 0x15F4 JUMP JUMPDEST SWAP2 POP POP SWAP3 POP SWAP3 POP SWAP3 JUMP JUMPDEST PUSH2 0x1871 DUP2 PUSH2 0x17DF JUMP JUMPDEST DUP3 MSTORE POP POP JUMP JUMPDEST PUSH0 PUSH1 0x20 DUP3 ADD SWAP1 POP PUSH2 0x188A PUSH0 DUP4 ADD DUP5 PUSH2 0x1868 JUMP JUMPDEST SWAP3 SWAP2 POP POP JUMP JUMPDEST PUSH0 PUSH1 0x20 DUP3 DUP5 SUB SLT ISZERO PUSH2 0x18A5 JUMPI PUSH2 0x18A4 PUSH2 0x151A JUMP JUMPDEST JUMPDEST PUSH0 PUSH2 0x18B2 DUP5 DUP3 DUP6 ADD PUSH2 0x16A1 JUMP JUMPDEST SWAP2 POP POP SWAP3 SWAP2 POP POP JUMP JUMPDEST PUSH0 PUSH8 0xFFFFFFFFFFFFFFFF DUP3 AND SWAP1 POP SWAP2 SWAP1 POP JUMP JUMPDEST PUSH2 0x18D7 DUP2 PUSH2 0x18BB JUMP JUMPDEST DUP3 MSTORE POP POP JUMP JUMPDEST PUSH0 PUSH1 0x20 DUP3 ADD SWAP1 POP PUSH2 0x18F0 PUSH0 DUP4 ADD DUP5 PUSH2 0x18CE JUMP JUMPDEST SWAP3 SWAP2 POP POP JUMP JUMPDEST PUSH0 PUSH0 REVERT JUMPDEST PUSH0 PUSH2 0x100 DUP3 DUP5 SUB SLT ISZERO PUSH2 0x1910 JUMPI PUSH2 0x190F PUSH2 0x18F6 JUMP JUMPDEST JUMPDEST DUP2 SWAP1 POP SWAP3 SWAP2 POP POP JUMP JUMPDEST PUSH0 PUSH0 REVERT JUMPDEST PUSH0 PUSH0 REVERT JUMPDEST PUSH0 PUSH0 REVERT JUMPDEST PUSH0 PUSH0 DUP4 PUSH1 0x1F DUP5 ADD SLT PUSH2 0x193A JUMPI PUSH2 0x1939 PUSH2 0x1919 JUMP JUMPDEST JUMPDEST DUP3 CALLDATALOAD SWAP1 POP PUSH8 0xFFFFFFFFFFFFFFFF DUP2 GT ISZERO PUSH2 0x1957 JUMPI PUSH2 0x1956 PUSH2 0x191D JUMP JUMPDEST JUMPDEST PUSH1 0x20 DUP4 ADD SWAP2 POP DUP4 PUSH1 0x1 DUP3 MUL DUP4 ADD GT ISZERO PUSH2 0x1973 JUMPI PUSH2 0x1972 PUSH2 0x1921 JUMP JUMPDEST JUMPDEST SWAP3 POP SWAP3 SWAP1 POP JUMP JUMPDEST PUSH0 PUSH0 PUSH0 PUSH2 0x120 DUP5 DUP7 SUB SLT ISZERO PUSH2 0x1992 JUMPI PUSH2 0x1991 PUSH2 0x151A JUMP JUMPDEST JUMPDEST PUSH0 PUSH2 0x199F DUP7 DUP3 DUP8 ADD PUSH2 0x18FA JUMP JUMPDEST SWAP4 POP POP PUSH2 0x100 DUP5 ADD CALLDATALOAD PUSH8 0xFFFFFFFFFFFFFFFF DUP2 GT ISZERO PUSH2 0x19C1 JUMPI PUSH2 0x19C0 PUSH2 0x151E JUMP JUMPDEST JUMPDEST PUSH2 0x19CD DUP7 DUP3 DUP8 ADD PUSH2 0x1925 JUMP JUMPDEST SWAP3 POP SWAP3 POP POP SWAP3 POP SWAP3 POP SWAP3 JUMP JUMPDEST PUSH0 DUP2 SWAP1 POP SWAP2 SWAP1 POP JUMP JUMPDEST PUSH0 PUSH2 0x19FC PUSH2 0x19F7 PUSH2 0x19F2 DUP5 PUSH2 0x165B JUMP JUMPDEST PUSH2 0x19D9 JUMP JUMPDEST PUSH2 0x165B JUMP JUMPDEST SWAP1 POP SWAP2 SWAP1 POP JUMP JUMPDEST PUSH0 PUSH2 0x1A0D DUP3 PUSH2 0x19E2 JUMP JUMPDEST SWAP1 POP SWAP2 SWAP1 POP JUMP JUMPDEST PUSH0 PUSH2 0x1A1E DUP3 PUSH2 0x1A03 JUMP JUMPDEST SWAP1 POP SWAP2 SWAP1 POP JUMP JUMPDEST PUSH2 0x1A2E DUP2 PUSH2 0x1A14 JUMP JUMPDEST DUP3 MSTORE POP POP JUMP JUMPDEST PUSH0 PUSH1 0x20 DUP3 ADD SWAP1 POP PUSH2 0x1A47 PUSH0 DUP4 ADD DUP5 PUSH2 0x1A25 JUMP JUMPDEST SWAP3 SWAP2 POP POP JUMP JUMPDEST PUSH0 PUSH1 0x40 DUP3 ADD SWAP1 POP PUSH2 0x1A60 PUSH0 DUP4 ADD DUP6 PUSH2 0x1764 JUMP JUMPDEST PUSH2 0x1A6D PUSH1 0x20 DUP4 ADD DUP5 PUSH2 0x17B7 JUMP JUMPDEST SWAP4 SWAP3 POP POP POP JUMP JUMPDEST PUSH0 DUP3 DUP3 MSTORE PUSH1 0x20 DUP3 ADD SWAP1 POP SWAP3 SWAP2 POP POP JUMP JUMPDEST PUSH32 0x416D6F756E742062656C6F77206D696E696D756D000000000000000000000000 PUSH0 DUP3 ADD MSTORE POP JUMP JUMPDEST PUSH0 PUSH2 0x1AB8 PUSH1 0x14 DUP4 PUSH2 0x1A74 JUMP JUMPDEST SWAP2 POP PUSH2 0x1AC3 DUP3 PUSH2 0x1A84 JUMP JUMPDEST PUSH1 0x20 DUP3 ADD SWAP1 POP SWAP2 SWAP1 POP JUMP JUMPDEST PUSH0 PUSH1 0x20 DUP3 ADD SWAP1 POP DUP2 DUP2 SUB PUSH0 DUP4 ADD MSTORE PUSH2 0x1AE5 DUP2 PUSH2 0x1AAC JUMP JUMPDEST SWAP1 POP SWAP2 SWAP1 POP JUMP JUMPDEST PUSH32 0x416D6F756E742061626F7665206D6178696D756D000000000000000000000000 PUSH0 DUP3 ADD MSTORE POP JUMP JUMPDEST PUSH0 PUSH2 0x1B20 PUSH1 0x14 DUP4 PUSH2 0x1A74 JUMP JUMPDEST SWAP2 POP PUSH2 0x1B2B DUP3 PUSH2 0x1AEC JUMP JUMPDEST PUSH1 0x20 DUP3 ADD SWAP1 POP SWAP2 SWAP1 POP JUMP JUMPDEST PUSH0 PUSH1 0x20 DUP3 ADD SWAP1 POP DUP2 DUP2 SUB PUSH0 DUP4 ADD MSTORE PUSH2 0x1B4D DUP2 PUSH2 0x1B14 JUMP JUMPDEST SWAP1 POP SWAP2 SWAP1 POP JUMP JUMPDEST PUSH32 0x43616E6E6F742062726964676520746F2073616D6520636861696E0000000000 PUSH0 DUP3 ADD MSTORE POP JUMP JUMPDEST PUSH0 PUSH2 0x1B88 PUSH1 0x1B DUP4 PUSH2 0x1A74 JUMP JUMPDEST SWAP2 POP PUSH2 0x1B93 DUP3 PUSH2 0x1B54 JUMP JUMPDEST PUSH1 0x20 DUP3 ADD SWAP1 POP SWAP2 SWAP1 POP JUMP JUMPDEST PUSH0 PUSH1 0x20 DUP3 ADD SWAP1 POP DUP2 DUP2 SUB PUSH0 DUP4 ADD MSTORE PUSH2 0x1BB5 DUP2 PUSH2 0x1B7C JUMP JUMPDEST SWAP1 POP SWAP2 SWAP1 POP JUMP JUMPDEST PUSH32 0x496E76616C696420726563697069656E74000000000000000000000000000000 PUSH0 DUP3 ADD MSTORE POP JUMP JUMPDEST PUSH0 PUSH2 0x1BF0 PUSH1 0x11 DUP4 PUSH2 0x1A74 JUMP JUMPDEST SWAP2 POP PUSH2 0x1BFB DUP3 PUSH2 0x1BBC JUMP JUMPDEST PUSH1 0x20 DUP3 ADD SWAP1 POP SWAP2 SWAP1 POP JUMP JUMPDEST PUSH0 PUSH1 0x20 DUP3 ADD SWAP1 POP DUP2 DUP2 SUB PUSH0 DUP4 ADD MSTORE PUSH2 0x1C1D DUP2 PUSH2 0x1BE4 JUMP JUMPDEST SWAP1 POP SWAP2 SWAP1 POP JUMP JUMPDEST PUSH32 0x4E487B7100000000000000000000000000000000000000000000000000000000 PUSH0 MSTORE PUSH1 0x11 PUSH1 0x4 MSTORE PUSH1 0x24 PUSH0 REVERT JUMPDEST PUSH0 PUSH2 0x1C5B DUP3 PUSH2 0x18BB JUMP JUMPDEST SWAP2 POP PUSH8 0xFFFFFFFFFFFFFFFF DUP3 SUB PUSH2 0x1C75 JUMPI PUSH2 0x1C74 PUSH2 0x1C24 JUMP JUMPDEST JUMPDEST PUSH1 0x1 DUP3 ADD SWAP1 POP SWAP2 SWAP1 POP JUMP JUMPDEST PUSH0 DUP2 PUSH1 0xE0 SHL SWAP1 POP SWAP2 SWAP1 POP JUMP JUMPDEST PUSH0 PUSH2 0x1C96 DUP3 PUSH2 0x1C80 JUMP JUMPDEST SWAP1 POP SWAP2 SWAP1 POP JUMP JUMPDEST PUSH2 0x1CAE PUSH2 0x1CA9 DUP3 PUSH2 0x17DF JUMP JUMPDEST PUSH2 0x1C8C JUMP JUMPDEST DUP3 MSTORE POP POP JUMP JUMPDEST PUSH0 DUP2 PUSH1 0xC0 SHL SWAP1 POP SWAP2 SWAP1 POP JUMP JUMPDEST PUSH0 PUSH2 0x1CCA DUP3 PUSH2 0x1CB4 JUMP JUMPDEST SWAP1 POP SWAP2 SWAP1 POP JUMP JUMPDEST PUSH2 0x1CE2 PUSH2 0x1CDD DUP3 PUSH2 0x18BB JUMP JUMPDEST PUSH2 0x1CC0 JUMP JUMPDEST DUP3 MSTORE POP POP JUMP JUMPDEST PUSH0 PUSH2 0x1CF3 DUP3 DUP6 PUSH2 0x1C9D JUMP JUMPDEST PUSH1 0x4 DUP3 ADD SWAP2 POP PUSH2 0x1D03 DUP3 DUP5 PUSH2 0x1CD1 JUMP JUMPDEST PUSH1 0x8 DUP3 ADD SWAP2 POP DUP2 SWAP1 POP SWAP4 SWAP3 POP POP POP JUMP JUMPDEST PUSH0 PUSH1 0x80 DUP3 ADD SWAP1 POP PUSH2 0x1D26 PUSH0 DUP4 ADD DUP8 PUSH2 0x17B7 JUMP JUMPDEST PUSH2 0x1D33 PUSH1 0x20 DUP4 ADD DUP7 PUSH2 0x1868 JUMP JUMPDEST PUSH2 0x1D40 PUSH1 0x40 DUP4 ADD DUP6 PUSH2 0x1633 JUMP JUMPDEST PUSH2 0x1D4D PUSH1 0x60 DUP4 ADD DUP5 PUSH2 0x18CE JUMP JUMPDEST SWAP6 SWAP5 POP POP POP POP POP JUMP JUMPDEST PUSH0 PUSH1 0x20 DUP3 DUP5 SUB SLT ISZERO PUSH2 0x1D6B JUMPI PUSH2 0x1D6A PUSH2 0x151A JUMP JUMPDEST JUMPDEST PUSH0 PUSH2 0x1D78 DUP5 DUP3 DUP6 ADD PUSH2 0x1804 JUMP JUMPDEST SWAP2 POP POP SWAP3 SWAP2 POP POP JUMP JUMPDEST PUSH32 0x57726F6E672064657374696E6174696F6E000000000000000000000000000000 PUSH0 DUP3 ADD MSTORE POP JUMP JUMPDEST PUSH0 PUSH2 0x1DB5 PUSH1 0x11 DUP4 PUSH2 0x1A74 JUMP JUMPDEST SWAP2 POP PUSH2 0x1DC0 DUP3 PUSH2 0x1D81 JUMP JUMPDEST PUSH1 0x20 DUP3 ADD SWAP1 POP SWAP2 SWAP1 POP JUMP JUMPDEST PUSH0 PUSH1 0x20 DUP3 ADD SWAP1 POP DUP2 DUP2 SUB PUSH0 DUP4 ADD MSTORE PUSH2 0x1DE2 DUP2 PUSH2 0x1DA9 JUMP JUMPDEST SWAP1 POP SWAP2 SWAP1 POP JUMP JUMPDEST PUSH32 0x416C72656164792070726F636573736564000000000000000000000000000000 PUSH0 DUP3 ADD MSTORE POP JUMP JUMPDEST PUSH0 PUSH2 0x1E1D PUSH1 0x11 DUP4 PUSH2 0x1A74 JUMP JUMPDEST SWAP2 POP PUSH2 0x1E28 DUP3 PUSH2 0x1DE9 JUMP JUMPDEST PUSH1 0x20 DUP3 ADD SWAP1 POP SWAP2 SWAP1 POP JUMP JUMPDEST PUSH0 PUSH1 0x20 DUP3 ADD SWAP1 POP DUP2 DUP2 SUB PUSH0 DUP4 ADD MSTORE PUSH2 0x1E4A DUP2 PUSH2 0x1E11 JUMP JUMPDEST SWAP1 POP SWAP2 SWAP1 POP JUMP JUMPDEST PUSH0 PUSH2 0x100 DUP3 ADD SWAP1 POP PUSH2 0x1E65 PUSH0 DUP4 ADD DUP12 PUSH2 0x1868 JUMP JUMPDEST PUSH2 0x1E72 PUSH1 0x20 DUP4 ADD DUP11 PUSH2 0x1633 JUMP JUMPDEST PUSH2 0x1E7F PUSH1 0x40 DUP4 ADD DUP10 PUSH2 0x1868 JUMP JUMPDEST PUSH2 0x1E8C PUSH1 0x60 DUP4 ADD DUP9 PUSH2 0x1868 JUMP JUMPDEST PUSH2 0x1E99 PUSH1 0x80 DUP4 ADD DUP8 PUSH2 0x1633 JUMP JUMPDEST PUSH2 0x1EA6 PUSH1 0xA0 DUP4 ADD DUP7 PUSH2 0x1633 JUMP JUMPDEST PUSH2 0x1EB3 PUSH1 0xC0 DUP4 ADD DUP6 PUSH2 0x17B7 JUMP JUMPDEST PUSH2 0x1EC0 PUSH1 0xE0 DUP4 ADD DUP5 PUSH2 0x1633 JUMP JUMPDEST SWAP10 SWAP9 POP POP POP POP POP POP POP POP POP JUMP JUMPDEST PUSH32 0x496E76616C6964206174746573746174696F6E00000000000000000000000000 PUSH0 DUP3 ADD MSTORE POP JUMP JUMPDEST PUSH0 PUSH2 0x1F01 PUSH1 0x13 DUP4 PUSH2 0x1A74 JUMP JUMPDEST SWAP2 POP PUSH2 0x1F0C DUP3 PUSH2 0x1ECD JUMP JUMPDEST PUSH1 0x20 DUP3 ADD SWAP1 POP SWAP2 SWAP1 POP JUMP JUMPDEST PUSH0 PUSH1 0x20 DUP3 ADD SWAP1 POP DUP2 DUP2 SUB PUSH0 DUP4 ADD MSTORE PUSH2 0x1F2E DUP2 PUSH2 0x1EF5 JUMP JUMPDEST SWAP1 POP SWAP2 SWAP1 POP JUMP JUMPDEST PUSH0 PUSH1 0x40 DUP3 ADD SWAP1 POP PUSH2 0x1F48 PUSH0 DUP4 ADD DUP6 PUSH2 0x17B7 JUMP JUMPDEST PUSH2 0x1F55 PUSH1 0x20 DUP4 ADD DUP5 PUSH2 0x1868 JUMP JUMPDEST SWAP4 SWAP3 POP POP POP JUMP JUMPDEST PUSH0 PUSH1 0x40 DUP3 ADD SWAP1 POP PUSH2 0x1F6F PUSH0 DUP4 ADD DUP6 PUSH2 0x1764 JUMP JUMPDEST PUSH2 0x1F7C PUSH1 0x20 DUP4 ADD DUP5 PUSH2 0x1633 JUMP JUMPDEST SWAP4 SWAP3 POP POP POP JUMP JUMPDEST PUSH32 0x4E487B7100000000000000000000000000000000000000000000000000000000 PUSH0 MSTORE PUSH1 0x21 PUSH1 0x4 MSTORE PUSH1 0x24 PUSH0 REVERT JUMPDEST PUSH0 PUSH1 0xFF DUP3 AND SWAP1 POP SWAP2 SWAP1 POP JUMP JUMPDEST PUSH2 0x1FC5 DUP2 PUSH2 0x1FB0 JUMP JUMPDEST DUP3 MSTORE POP POP JUMP JUMPDEST PUSH0 PUSH1 0x80 DUP3 ADD SWAP1 POP PUSH2 0x1FDE PUSH0 DUP4 ADD DUP8 PUSH2 0x1633 JUMP JUMPDEST PUSH2 0x1FEB PUSH1 0x20 DUP4 ADD DUP7 PUSH2 0x1FBC JUMP JUMPDEST PUSH2 0x1FF8 PUSH1 0x40 DUP4 ADD DUP6 PUSH2 0x1633 JUMP JUMPDEST PUSH2 0x2005 PUSH1 0x60 DUP4 ADD DUP5 PUSH2 0x1633 JUMP JUMPDEST SWAP6 SWAP5 POP POP POP POP POP JUMP INVALID LOG2 PUSH5 0x6970667358 0x22 SLT KECCAK256 CALLDATACOPY LOG4 0xAC MUL 0xC0 PUSH23 0x7851A060EFD1C95F0DA09EDA538073BDEDA28B8F5D4332 0xCB CODECOPY 0xB7 PUSH5 0x736F6C6343 STOP ADDMOD SHR STOP CALLER "},"methodIdentifiers":{"DEFAULT_ADMIN_ROLE()":"a217fddf","attester()":"47b0c3b3","depositForBurn(uint256,uint32,bytes32)":"7eaac98f","emergencyMint(address,uint256)":"43785dc9","getRoleAdmin(bytes32)":"248a9ca3","grantRole(bytes32,address)":"2f2ff15d","hasRole(bytes32,address)":"91d14854","localDomain()":"8d3638f4","maxAmount()":"5f48f393","minAmount()":"9b2cb5d8","nonce()":"affed0e0","pause()":"8456cb59","paused()":"5c975abb","receiveMessage((uint32,bytes32,uint32,uint32,bytes32,bytes32,uint256,bytes32),bytes)":"ef537e6c","renounceRole(bytes32,address)":"36568abe","revokeRole(bytes32,address)":"d547741f","setAttester(address)":"9daf85ab","setMaxAmount(uint256)":"4fe47f70","setMinAmount(uint256)":"897b0637","supportsInterface(bytes4)":"01ffc9a7","token()":"fc0c546a","unpause()":"3f4ba83a","usedNonces(bytes32)":"feb61724"}}}}}