{
  "_format": "hh3-artifact-1",
  "contractName": "TestEURCV",
  "sourceName": "contracts/TestEURCV.sol",
  "abi": [
    {
      "inputs": [],
      "stateMutability": "nonpayable",
      "type": "constructor"
    },
    {
      "inputs": [
        {
          "internalType": "address",
          "name": "spender",
          "type": "address"
        },
        {
          "internalType": "uint256",
          "name": "allowance",
          "type": "uint256"
        },
        {
          "internalType": "uint256",
          "name": "needed",
          "type": "uint256"
        }
      ],
      "name": "ERC20InsufficientAllowance",
      "type": "error"
    },
    {
      "inputs": [
        {
          "internalType": "address",
          "name": "sender",
          "type": "address"
        },
        {
          "internalType": "uint256",
          "name": "balance",
          "type": "uint256"
        },
        {
          "internalType": "uint256",
          "name": "needed",
          "type": "uint256"
        }
      ],
      "name": "ERC20InsufficientBalance",
      "type": "error"
    },
    {
      "inputs": [
        {
          "internalType": "address",
          "name": "approver",
          "type": "address"
        }
      ],
      "name": "ERC20InvalidApprover",
      "type": "error"
    },
    {
      "inputs": [
        {
          "internalType": "address",
          "name": "receiver",
          "type": "address"
        }
      ],
      "name": "ERC20InvalidReceiver",
      "type": "error"
    },
    {
      "inputs": [
        {
          "internalType": "address",
          "name": "sender",
          "type": "address"
        }
      ],
      "name": "ERC20InvalidSender",
      "type": "error"
    },
    {
      "inputs": [
        {
          "internalType": "address",
          "name": "spender",
          "type": "address"
        }
      ],
      "name": "ERC20InvalidSpender",
      "type": "error"
    },
    {
      "inputs": [
        {
          "internalType": "address",
          "name": "owner",
          "type": "address"
        }
      ],
      "name": "OwnableInvalidOwner",
      "type": "error"
    },
    {
      "inputs": [
        {
          "internalType": "address",
          "name": "account",
          "type": "address"
        }
      ],
      "name": "OwnableUnauthorizedAccount",
      "type": "error"
    },
    {
      "anonymous": false,
      "inputs": [
        {
          "indexed": true,
          "internalType": "address",
          "name": "owner",
          "type": "address"
        },
        {
          "indexed": true,
          "internalType": "address",
          "name": "spender",
          "type": "address"
        },
        {
          "indexed": false,
          "internalType": "uint256",
          "name": "value",
          "type": "uint256"
        }
      ],
      "name": "Approval",
      "type": "event"
    },
    {
      "anonymous": false,
      "inputs": [
        {
          "indexed": true,
          "internalType": "address",
          "name": "sender",
          "type": "address"
        },
        {
          "indexed": false,
          "internalType": "uint256",
          "name": "amount",
          "type": "uint256"
        },
        {
          "indexed": false,
          "internalType": "string",
          "name": "destinationChain",
          "type": "string"
        },
        {
          "indexed": false,
          "internalType": "string",
          "name": "recipientAddress",
          "type": "string"
        }
      ],
      "name": "BridgeBurn",
      "type": "event"
    },
    {
      "anonymous": false,
      "inputs": [
        {
          "indexed": true,
          "internalType": "address",
          "name": "previousOwner",
          "type": "address"
        },
        {
          "indexed": true,
          "internalType": "address",
          "name": "newOwner",
          "type": "address"
        }
      ],
      "name": "OwnershipTransferred",
      "type": "event"
    },
    {
      "anonymous": false,
      "inputs": [
        {
          "indexed": true,
          "internalType": "address",
          "name": "from",
          "type": "address"
        },
        {
          "indexed": true,
          "internalType": "address",
          "name": "to",
          "type": "address"
        },
        {
          "indexed": false,
          "internalType": "uint256",
          "name": "value",
          "type": "uint256"
        }
      ],
      "name": "Transfer",
      "type": "event"
    },
    {
      "inputs": [
        {
          "internalType": "address",
          "name": "owner",
          "type": "address"
        },
        {
          "internalType": "address",
          "name": "spender",
          "type": "address"
        }
      ],
      "name": "allowance",
      "outputs": [
        {
          "internalType": "uint256",
          "name": "",
          "type": "uint256"
        }
      ],
      "stateMutability": "view",
      "type": "function"
    },
    {
      "inputs": [
        {
          "internalType": "address",
          "name": "spender",
          "type": "address"
        },
        {
          "internalType": "uint256",
          "name": "value",
          "type": "uint256"
        }
      ],
      "name": "approve",
      "outputs": [
        {
          "internalType": "bool",
          "name": "",
          "type": "bool"
        }
      ],
      "stateMutability": "nonpayable",
      "type": "function"
    },
    {
      "inputs": [
        {
          "internalType": "address",
          "name": "account",
          "type": "address"
        }
      ],
      "name": "balanceOf",
      "outputs": [
        {
          "internalType": "uint256",
          "name": "",
          "type": "uint256"
        }
      ],
      "stateMutability": "view",
      "type": "function"
    },
    {
      "inputs": [
        {
          "internalType": "uint256",
          "name": "amount",
          "type": "uint256"
        },
        {
          "internalType": "string",
          "name": "destinationChain",
          "type": "string"
        },
        {
          "internalType": "string",
          "name": "recipientAddress",
          "type": "string"
        }
      ],
      "name": "bridgeBurn",
      "outputs": [],
      "stateMutability": "nonpayable",
      "type": "function"
    },
    {
      "inputs": [
        {
          "internalType": "uint256",
          "name": "amount",
          "type": "uint256"
        }
      ],
      "name": "burn",
      "outputs": [],
      "stateMutability": "nonpayable",
      "type": "function"
    },
    {
      "inputs": [],
      "name": "decimals",
      "outputs": [
        {
          "internalType": "uint8",
          "name": "",
          "type": "uint8"
        }
      ],
      "stateMutability": "pure",
      "type": "function"
    },
    {
      "inputs": [
        {
          "internalType": "address",
          "name": "to",
          "type": "address"
        },
        {
          "internalType": "uint256",
          "name": "amount",
          "type": "uint256"
        }
      ],
      "name": "mint",
      "outputs": [],
      "stateMutability": "nonpayable",
      "type": "function"
    },
    {
      "inputs": [],
      "name": "name",
      "outputs": [
        {
          "internalType": "string",
          "name": "",
          "type": "string"
        }
      ],
      "stateMutability": "view",
      "type": "function"
    },
    {
      "inputs": [],
      "name": "owner",
      "outputs": [
        {
          "internalType": "address",
          "name": "",
          "type": "address"
        }
      ],
      "stateMutability": "view",
      "type": "function"
    },
    {
      "inputs": [],
      "name": "renounceOwnership",
      "outputs": [],
      "stateMutability": "nonpayable",
      "type": "function"
    },
    {
      "inputs": [],
      "name": "symbol",
      "outputs": [
        {
          "internalType": "string",
          "name": "",
          "type": "string"
        }
      ],
      "stateMutability": "view",
      "type": "function"
    },
    {
      "inputs": [],
      "name": "totalSupply",
      "outputs": [
        {
          "internalType": "uint256",
          "name": "",
          "type": "uint256"
        }
      ],
      "stateMutability": "view",
      "type": "function"
    },
    {
      "inputs": [
        {
          "internalType": "address",
          "name": "to",
          "type": "address"
        },
        {
          "internalType": "uint256",
          "name": "value",
          "type": "uint256"
        }
      ],
      "name": "transfer",
      "outputs": [
        {
          "internalType": "bool",
          "name": "",
          "type": "bool"
        }
      ],
      "stateMutability": "nonpayable",
      "type": "function"
    },
    {
      "inputs": [
        {
          "internalType": "address",
          "name": "from",
          "type": "address"
        },
        {
          "internalType": "address",
          "name": "to",
          "type": "address"
        },
        {
          "internalType": "uint256",
          "name": "value",
          "type": "uint256"
        }
      ],
      "name": "transferFrom",
      "outputs": [
        {
          "internalType": "bool",
          "name": "",
          "type": "bool"
        }
      ],
      "stateMutability": "nonpayable",
      "type": "function"
    },
    {
      "inputs": [
        {
          "internalType": "address",
          "name": "newOwner",
          "type": "address"
        }
      ],
      "name": "transferOwnership",
      "outputs": [],
      "stateMutability": "nonpayable",
      "type": "function"
    }
  ],
  "bytecode": "0x608060405234801562000010575f80fd5b50336040518060400160405280601581526020017f546573742045555220436f696e5665727469626c6500000000000000000000008152506040518060400160405280600981526020017f746573744555524356000000000000000000000000000000000000000000000081525081600390816200008f919062000456565b508060049081620000a1919062000456565b5050505f73ffffffffffffffffffffffffffffffffffffffff168173ffffffffffffffffffffffffffffffffffffffff160362000117575f6040517f1e4fbdf70000000000000000000000000000000000000000000000000000000081526004016200010e91906200057d565b60405180910390fd5b62000128816200012f60201b60201c565b5062000598565b5f60055f9054906101000a900473ffffffffffffffffffffffffffffffffffffffff1690508160055f6101000a81548173ffffffffffffffffffffffffffffffffffffffff021916908373ffffffffffffffffffffffffffffffffffffffff1602179055508173ffffffffffffffffffffffffffffffffffffffff168173ffffffffffffffffffffffffffffffffffffffff167f8be0079c531659141344cd1fd0a4f28419497f9722a3daafe3b4186f6b6457e060405160405180910390a35050565b5f81519050919050565b7f4e487b71000000000000000000000000000000000000000000000000000000005f52604160045260245ffd5b7f4e487b71000000000000000000000000000000000000000000000000000000005f52602260045260245ffd5b5f60028204905060018216806200026e57607f821691505b60208210810362000284576200028362000229565b5b50919050565b5f819050815f5260205f209050919050565b5f6020601f8301049050919050565b5f82821b905092915050565b5f60088302620002e87fffffffffffffffffffffffffffffffffffffffffffffffffffffffffffffffff82620002ab565b620002f48683620002ab565b95508019841693508086168417925050509392505050565b5f819050919050565b5f819050919050565b5f6200033e6200033862000332846200030c565b62000315565b6200030c565b9050919050565b5f819050919050565b62000359836200031e565b62000371620003688262000345565b848454620002b7565b825550505050565b5f90565b6200038762000379565b620003948184846200034e565b505050565b5b81811015620003bb57620003af5f826200037d565b6001810190506200039a565b5050565b601f8211156200040a57620003d4816200028a565b620003df846200029c565b81016020851015620003ef578190505b62000407620003fe856200029c565b83018262000399565b50505b505050565b5f82821c905092915050565b5f6200042c5f19846008026200040f565b1980831691505092915050565b5f6200044683836200041b565b9150826002028217905092915050565b6200046182620001f2565b67ffffffffffffffff8111156200047d576200047c620001fc565b5b62000489825462000256565b62000496828285620003bf565b5f60209050601f831160018114620004cc575f8415620004b7578287015190505b620004c3858262000439565b86555062000532565b601f198416620004dc866200028a565b5f5b828110156200050557848901518255600182019150602085019450602081019050620004de565b8683101562000525578489015162000521601f8916826200041b565b8355505b6001600288020188555050505b505050505050565b5f73ffffffffffffffffffffffffffffffffffffffff82169050919050565b5f62000565826200053a565b9050919050565b620005778162000559565b82525050565b5f602082019050620005925f8301846200056c565b92915050565b61142980620005a65f395ff3fe608060405234801561000f575f80fd5b50600436106100f3575f3560e01c806370a0823111610095578063a9059cbb11610064578063a9059cbb1461025f578063c11c79891461028f578063dd62ed3e146102ab578063f2fde38b146102db576100f3565b806370a08231146101e9578063715018a6146102195780638da5cb5b1461022357806395d89b4114610241576100f3565b806323b872dd116100d157806323b872dd14610163578063313ce5671461019357806340c10f19146101b157806342966c68146101cd576100f3565b806306fdde03146100f7578063095ea7b31461011557806318160ddd14610145575b5f80fd5b6100ff6102f7565b60405161010c9190610f00565b60405180910390f35b61012f600480360381019061012a9190610fb5565b610387565b60405161013c919061100d565b60405180910390f35b61014d6103a9565b60405161015a9190611035565b60405180910390f35b61017d6004803603810190610178919061104e565b6103b2565b60405161018a919061100d565b60405180910390f35b61019b6103e0565b6040516101a891906110b9565b60405180910390f35b6101cb60048036038101906101c69190610fb5565b6103e8565b005b6101e760048036038101906101e291906110d2565b6103fe565b005b61020360048036038101906101fe91906110fd565b61040b565b6040516102109190611035565b60405180910390f35b610221610450565b005b61022b610463565b6040516102389190611137565b60405180910390f35b61024961048b565b6040516102569190610f00565b60405180910390f35b61027960048036038101906102749190610fb5565b61051b565b604051610286919061100d565b60405180910390f35b6102a960048036038101906102a491906111b1565b61053d565b005b6102c560048036038101906102c09190611242565b6105a4565b6040516102d29190611035565b60405180910390f35b6102f560048036038101906102f091906110fd565b610626565b005b606060038054610306906112ad565b80601f0160208091040260200160405190810160405280929190818152602001828054610332906112ad565b801561037d5780601f106103545761010080835404028352916020019161037d565b820191905f5260205f20905b81548152906001019060200180831161036057829003601f168201915b5050505050905090565b5f806103916106aa565b905061039e8185856106b1565b600191505092915050565b5f600254905090565b5f806103bc6106aa565b90506103c98582856106c3565b6103d4858585610756565b60019150509392505050565b5f6006905090565b6103f0610846565b6103fa82826108cd565b5050565b610408338261094c565b50565b5f805f8373ffffffffffffffffffffffffffffffffffffffff1673ffffffffffffffffffffffffffffffffffffffff1681526020019081526020015f20549050919050565b610458610846565b6104615f6109cb565b565b5f60055f9054906101000a900473ffffffffffffffffffffffffffffffffffffffff16905090565b60606004805461049a906112ad565b80601f01602080910402602001604051908101604052809291908181526020018280546104c6906112ad565b80156105115780601f106104e857610100808354040283529160200191610511565b820191905f5260205f20905b8154815290600101906020018083116104f457829003601f168201915b5050505050905090565b5f806105256106aa565b9050610532818585610756565b600191505092915050565b610547338661094c565b3373ffffffffffffffffffffffffffffffffffffffff167f5e40fe33c03c8c884cddc56574e4d3a2663dfc809fbfa004e20cc7d01140f4ce8686868686604051610595959493929190611317565b60405180910390a25050505050565b5f60015f8473ffffffffffffffffffffffffffffffffffffffff1673ffffffffffffffffffffffffffffffffffffffff1681526020019081526020015f205f8373ffffffffffffffffffffffffffffffffffffffff1673ffffffffffffffffffffffffffffffffffffffff1681526020019081526020015f2054905092915050565b61062e610846565b5f73ffffffffffffffffffffffffffffffffffffffff168173ffffffffffffffffffffffffffffffffffffffff160361069e575f6040517f1e4fbdf70000000000000000000000000000000000000000000000000000000081526004016106959190611137565b60405180910390fd5b6106a7816109cb565b50565b5f33905090565b6106be8383836001610a8e565b505050565b5f6106ce84846105a4565b90507fffffffffffffffffffffffffffffffffffffffffffffffffffffffffffffffff8110156107505781811015610741578281836040517ffb8f41b20000000000000000000000000000000000000000000000000000000081526004016107389392919061135e565b60405180910390fd5b61074f84848484035f610a8e565b5b50505050565b5f73ffffffffffffffffffffffffffffffffffffffff168373ffffffffffffffffffffffffffffffffffffffff16036107c6575f6040517f96c6fd1e0000000000000000000000000000000000000000000000000000000081526004016107bd9190611137565b60405180910390fd5b5f73ffffffffffffffffffffffffffffffffffffffff168273ffffffffffffffffffffffffffffffffffffffff1603610836575f6040517fec442f0500000000000000000000000000000000000000000000000000000000815260040161082d9190611137565b60405180910390fd5b610841838383610c5d565b505050565b61084e6106aa565b73ffffffffffffffffffffffffffffffffffffffff1661086c610463565b73ffffffffffffffffffffffffffffffffffffffff16146108cb5761088f6106aa565b6040517f118cdaa70000000000000000000000000000000000000000000000000000000081526004016108c29190611137565b60405180910390fd5b565b5f73ffffffffffffffffffffffffffffffffffffffff168273ffffffffffffffffffffffffffffffffffffffff160361093d575f6040517fec442f050000000000000000000000000000000000000000000000000000000081526004016109349190611137565b60405180910390fd5b6109485f8383610c5d565b5050565b5f73ffffffffffffffffffffffffffffffffffffffff168273ffffffffffffffffffffffffffffffffffffffff16036109bc575f6040517f96c6fd1e0000000000000000000000000000000000000000000000000000000081526004016109b39190611137565b60405180910390fd5b6109c7825f83610c5d565b5050565b5f60055f9054906101000a900473ffffffffffffffffffffffffffffffffffffffff1690508160055f6101000a81548173ffffffffffffffffffffffffffffffffffffffff021916908373ffffffffffffffffffffffffffffffffffffffff1602179055508173ffffffffffffffffffffffffffffffffffffffff168173ffffffffffffffffffffffffffffffffffffffff167f8be0079c531659141344cd1fd0a4f28419497f9722a3daafe3b4186f6b6457e060405160405180910390a35050565b5f73ffffffffffffffffffffffffffffffffffffffff168473ffffffffffffffffffffffffffffffffffffffff1603610afe575f6040517fe602df05000000000000000000000000000000000000000000000000000000008152600401610af59190611137565b60405180910390fd5b5f73ffffffffffffffffffffffffffffffffffffffff168373ffffffffffffffffffffffffffffffffffffffff1603610b6e575f6040517f94280d62000000000000000000000000000000000000000000000000000000008152600401610b659190611137565b60405180910390fd5b8160015f8673ffffffffffffffffffffffffffffffffffffffff1673ffffffffffffffffffffffffffffffffffffffff1681526020019081526020015f205f8573ffffffffffffffffffffffffffffffffffffffff1673ffffffffffffffffffffffffffffffffffffffff1681526020019081526020015f20819055508015610c57578273ffffffffffffffffffffffffffffffffffffffff168473ffffffffffffffffffffffffffffffffffffffff167f8c5be1e5ebec7d5bd14f71427d1e84f3dd0314c0f7b2291e5b200ac8c7c3b92584604051610c4e9190611035565b60405180910390a35b50505050565b5f73ffffffffffffffffffffffffffffffffffffffff168373ffffffffffffffffffffffffffffffffffffffff1603610cad578060025f828254610ca191906113c0565b92505081905550610d7b565b5f805f8573ffffffffffffffffffffffffffffffffffffffff1673ffffffffffffffffffffffffffffffffffffffff1681526020019081526020015f2054905081811015610d36578381836040517fe450d38c000000000000000000000000000000000000000000000000000000008152600401610d2d9392919061135e565b60405180910390fd5b8181035f808673ffffffffffffffffffffffffffffffffffffffff1673ffffffffffffffffffffffffffffffffffffffff1681526020019081526020015f2081905550505b5f73ffffffffffffffffffffffffffffffffffffffff168273ffffffffffffffffffffffffffffffffffffffff1603610dc2578060025f8282540392505081905550610e0c565b805f808473ffffffffffffffffffffffffffffffffffffffff1673ffffffffffffffffffffffffffffffffffffffff1681526020019081526020015f205f82825401925050819055505b8173ffffffffffffffffffffffffffffffffffffffff168373ffffffffffffffffffffffffffffffffffffffff167fddf252ad1be2c89b69c2b068fc378daa952ba7f163c4a11628f55a4df523b3ef83604051610e699190611035565b60405180910390a3505050565b5f81519050919050565b5f82825260208201905092915050565b5f5b83811015610ead578082015181840152602081019050610e92565b5f8484015250505050565b5f601f19601f8301169050919050565b5f610ed282610e76565b610edc8185610e80565b9350610eec818560208601610e90565b610ef581610eb8565b840191505092915050565b5f6020820190508181035f830152610f188184610ec8565b905092915050565b5f80fd5b5f80fd5b5f73ffffffffffffffffffffffffffffffffffffffff82169050919050565b5f610f5182610f28565b9050919050565b610f6181610f47565b8114610f6b575f80fd5b50565b5f81359050610f7c81610f58565b92915050565b5f819050919050565b610f9481610f82565b8114610f9e575f80fd5b50565b5f81359050610faf81610f8b565b92915050565b5f8060408385031215610fcb57610fca610f20565b5b5f610fd885828601610f6e565b9250506020610fe985828601610fa1565b9150509250929050565b5f8115159050919050565b61100781610ff3565b82525050565b5f6020820190506110205f830184610ffe565b92915050565b61102f81610f82565b82525050565b5f6020820190506110485f830184611026565b92915050565b5f805f6060848603121561106557611064610f20565b5b5f61107286828701610f6e565b935050602061108386828701610f6e565b925050604061109486828701610fa1565b9150509250925092565b5f60ff82169050919050565b6110b38161109e565b82525050565b5f6020820190506110cc5f8301846110aa565b92915050565b5f602082840312156110e7576110e6610f20565b5b5f6110f484828501610fa1565b91505092915050565b5f6020828403121561111257611111610f20565b5b5f61111f84828501610f6e565b91505092915050565b61113181610f47565b82525050565b5f60208201905061114a5f830184611128565b92915050565b5f80fd5b5f80fd5b5f80fd5b5f8083601f84011261117157611170611150565b5b8235905067ffffffffffffffff81111561118e5761118d611154565b5b6020830191508360018202830111156111aa576111a9611158565b5b9250929050565b5f805f805f606086880312156111ca576111c9610f20565b5b5f6111d788828901610fa1565b955050602086013567ffffffffffffffff8111156111f8576111f7610f24565b5b6112048882890161115c565b9450945050604086013567ffffffffffffffff81111561122757611226610f24565b5b6112338882890161115c565b92509250509295509295909350565b5f806040838503121561125857611257610f20565b5b5f61126585828601610f6e565b925050602061127685828601610f6e565b9150509250929050565b7f4e487b71000000000000000000000000000000000000000000000000000000005f52602260045260245ffd5b5f60028204905060018216806112c457607f821691505b6020821081036112d7576112d6611280565b5b50919050565b828183375f83830152505050565b5f6112f68385610e80565b93506113038385846112dd565b61130c83610eb8565b840190509392505050565b5f60608201905061132a5f830188611026565b818103602083015261133d8186886112eb565b905081810360408301526113528184866112eb565b90509695505050505050565b5f6060820190506113715f830186611128565b61137e6020830185611026565b61138b6040830184611026565b949350505050565b7f4e487b71000000000000000000000000000000000000000000000000000000005f52601160045260245ffd5b5f6113ca82610f82565b91506113d583610f82565b92508282019050808211156113ed576113ec611393565b5b9291505056fea26469706673582212204f325fa623888177af48693bae0502b8e98a363ca7e1c2fbd6f3860a56c0eae864736f6c63430008140033",
  "linkReferences": {},
  "deployedLinkReferences": {},
  "immutableReferences": {},
  "inputSourceName": "project/contracts/TestEURCV.sol",
  "buildInfoId": "solc-0_8_20-16296b72e626e53a0b518b4f89e668d045f024b5"
}